{
  "_format": "hh3-artifact-1",
  "contractName": "BlogSystem",
  "sourceName": "contracts/BlogSystem.sol",
  "abi": [
    {
      "inputs": [
        {
          "internalType": "address",
          "name": "spender",
          "type": "address"
        },
        {
          "internalType": "uint256",
          "name": "allowance",
          "type": "uint256"
        },
        {
          "internalType": "uint256",
          "name": "needed",
          "type": "uint256"
        }
      ],
      "name": "ERC20InsufficientAllowance",
      "type": "error"
    },
    {
      "inputs": [
        {
          "internalType": "address",
          "name": "sender",
          "type": "address"
        },
        {
          "internalType": "uint256",
          "name": "balance",
          "type": "uint256"
        },
        {
          "internalType": "uint256",
          "name": "needed",
          "type": "uint256"
        }
      ],
      "name": "ERC20InsufficientBalance",
      "type": "error"
    },
    {
      "inputs": [
        {
          "internalType": "address",
          "name": "approver",
          "type": "address"
        }
      ],
      "name": "ERC20InvalidApprover",
      "type": "error"
    },
    {
      "inputs": [
        {
          "internalType": "address",
          "name": "receiver",
          "type": "address"
        }
      ],
      "name": "ERC20InvalidReceiver",
      "type": "error"
    },
    {
      "inputs": [
        {
          "internalType": "address",
          "name": "sender",
          "type": "address"
        }
      ],
      "name": "ERC20InvalidSender",
      "type": "error"
    },
    {
      "inputs": [
        {
          "internalType": "address",
          "name": "spender",
          "type": "address"
        }
      ],
      "name": "ERC20InvalidSpender",
      "type": "error"
    },
    {
      "anonymous": false,
      "inputs": [
        {
          "indexed": true,
          "internalType": "address",
          "name": "owner",
          "type": "address"
        },
        {
          "indexed": true,
          "internalType": "uint256",
          "name": "albumId",
          "type": "uint256"
        },
        {
          "indexed": false,
          "internalType": "string",
          "name": "name",
          "type": "string"
        }
      ],
      "name": "AlbumCreated",
      "type": "event"
    },
    {
      "anonymous": false,
      "inputs": [
        {
          "indexed": true,
          "internalType": "address",
          "name": "owner",
          "type": "address"
        },
        {
          "indexed": true,
          "internalType": "address",
          "name": "spender",
          "type": "address"
        },
        {
          "indexed": false,
          "internalType": "uint256",
          "name": "value",
          "type": "uint256"
        }
      ],
      "name": "Approval",
      "type": "event"
    },
    {
      "anonymous": false,
      "inputs": [
        {
          "indexed": true,
          "internalType": "address",
          "name": "user",
          "type": "address"
        },
        {
          "indexed": false,
          "internalType": "string",
          "name": "avatarCID",
          "type": "string"
        }
      ],
      "name": "AvatarUpdated",
      "type": "event"
    },
    {
      "anonymous": false,
      "inputs": [
        {
          "indexed": true,
          "internalType": "address",
          "name": "author",
          "type": "address"
        },
        {
          "indexed": true,
          "internalType": "uint256",
          "name": "blogId",
          "type": "uint256"
        },
        {
          "indexed": false,
          "internalType": "string",
          "name": "ipfsCID",
          "type": "string"
        },
        {
          "indexed": false,
          "internalType": "string",
          "name": "name",
          "type": "string"
        }
      ],
      "name": "BlogPublished",
      "type": "event"
    },
    {
      "anonymous": false,
      "inputs": [
        {
          "indexed": true,
          "internalType": "address",
          "name": "buyer",
          "type": "address"
        },
        {
          "indexed": true,
          "internalType": "uint256",
          "name": "blogId",
          "type": "uint256"
        },
        {
          "indexed": false,
          "internalType": "uint256",
          "name": "price",
          "type": "uint256"
        }
      ],
      "name": "BlogPurchased",
      "type": "event"
    },
    {
      "anonymous": false,
      "inputs": [
        {
          "indexed": true,
          "internalType": "uint256",
          "name": "blogId",
          "type": "uint256"
        },
        {
          "indexed": false,
          "internalType": "uint256",
          "name": "newViewCount",
          "type": "uint256"
        },
        {
          "indexed": false,
          "internalType": "address",
          "name": "viewer",
          "type": "address"
        }
      ],
      "name": "BlogViewed",
      "type": "event"
    },
    {
      "anonymous": false,
      "inputs": [
        {
          "indexed": true,
          "internalType": "uint256",
          "name": "blogId",
          "type": "uint256"
        },
        {
          "indexed": true,
          "internalType": "uint256",
          "name": "commentId",
          "type": "uint256"
        },
        {
          "indexed": true,
          "internalType": "address",
          "name": "buyer",
          "type": "address"
        }
      ],
      "name": "CommentAdded",
      "type": "event"
    },
    {
      "anonymous": false,
      "inputs": [
        {
          "indexed": true,
          "internalType": "address",
          "name": "user",
          "type": "address"
        },
        {
          "indexed": false,
          "internalType": "uint256",
          "name": "amount",
          "type": "uint256"
        }
      ],
      "name": "FaucetClaimed",
      "type": "event"
    },
    {
      "anonymous": false,
      "inputs": [
        {
          "indexed": true,
          "internalType": "uint256",
          "name": "albumId",
          "type": "uint256"
        },
        {
          "indexed": false,
          "internalType": "uint256",
          "name": "pictureIndex",
          "type": "uint256"
        },
        {
          "indexed": false,
          "internalType": "string",
          "name": "ipfsCID",
          "type": "string"
        }
      ],
      "name": "PictureAdded",
      "type": "event"
    },
    {
      "anonymous": false,
      "inputs": [
        {
          "indexed": true,
          "internalType": "uint256",
          "name": "albumId",
          "type": "uint256"
        },
        {
          "indexed": false,
          "internalType": "uint256",
          "name": "pictureIndex",
          "type": "uint256"
        }
      ],
      "name": "PictureDeleted",
      "type": "event"
    },
    {
      "anonymous": false,
      "inputs": [
        {
          "indexed": true,
          "internalType": "uint256",
          "name": "proposalId",
          "type": "uint256"
        },
        {
          "indexed": true,
          "internalType": "uint256",
          "name": "blogId",
          "type": "uint256"
        },
        {
          "indexed": false,
          "internalType": "address",
          "name": "proposer",
          "type": "address"
        },
        {
          "indexed": false,
          "internalType": "string",
          "name": "reason",
          "type": "string"
        }
      ],
      "name": "ProposalCreated",
      "type": "event"
    },
    {
      "anonymous": false,
      "inputs": [
        {
          "indexed": true,
          "internalType": "uint256",
          "name": "proposalId",
          "type": "uint256"
        },
        {
          "indexed": true,
          "internalType": "uint256",
          "name": "blogId",
          "type": "uint256"
        },
        {
          "indexed": false,
          "internalType": "bool",
          "name": "isHidden",
          "type": "bool"
        }
      ],
      "name": "ProposalExecuted",
      "type": "event"
    },
    {
      "anonymous": false,
      "inputs": [
        {
          "indexed": true,
          "internalType": "address",
          "name": "from",
          "type": "address"
        },
        {
          "indexed": true,
          "internalType": "address",
          "name": "to",
          "type": "address"
        },
        {
          "indexed": false,
          "internalType": "uint256",
          "name": "value",
          "type": "uint256"
        }
      ],
      "name": "Transfer",
      "type": "event"
    },
    {
      "anonymous": false,
      "inputs": [
        {
          "indexed": true,
          "internalType": "address",
          "name": "user",
          "type": "address"
        },
        {
          "indexed": false,
          "internalType": "string",
          "name": "newUsername",
          "type": "string"
        }
      ],
      "name": "UsernameUpdated",
      "type": "event"
    },
    {
      "anonymous": false,
      "inputs": [
        {
          "indexed": true,
          "internalType": "uint256",
          "name": "proposalId",
          "type": "uint256"
        },
        {
          "indexed": true,
          "internalType": "address",
          "name": "voter",
          "type": "address"
        },
        {
          "indexed": false,
          "internalType": "uint256",
          "name": "weight",
          "type": "uint256"
        }
      ],
      "name": "Voted",
      "type": "event"
    },
    {
      "inputs": [],
      "name": "FAUCET_AMOUNT",
      "outputs": [
        {
          "internalType": "uint256",
          "name": "",
          "type": "uint256"
        }
      ],
      "stateMutability": "view",
      "type": "function"
    },
    {
      "inputs": [],
      "name": "FAUCET_COOLDOWN",
      "outputs": [
        {
          "internalType": "uint256",
          "name": "",
          "type": "uint256"
        }
      ],
      "stateMutability": "view",
      "type": "function"
    },
    {
      "inputs": [],
      "name": "QUORUM_VOTES",
      "outputs": [
        {
          "internalType": "uint256",
          "name": "",
          "type": "uint256"
        }
      ],
      "stateMutability": "view",
      "type": "function"
    },
    {
      "inputs": [],
      "name": "VOTING_DURATION",
      "outputs": [
        {
          "internalType": "uint256",
          "name": "",
          "type": "uint256"
        }
      ],
      "stateMutability": "view",
      "type": "function"
    },
    {
      "inputs": [
        {
          "internalType": "uint256",
          "name": "blogId",
          "type": "uint256"
        },
        {
          "internalType": "string",
          "name": "content",
          "type": "string"
        }
      ],
      "name": "addComment",
      "outputs": [
        {
          "internalType": "uint256",
          "name": "",
          "type": "uint256"
        }
      ],
      "stateMutability": "nonpayable",
      "type": "function"
    },
    {
      "inputs": [
        {
          "internalType": "uint256",
          "name": "albumId",
          "type": "uint256"
        },
        {
          "internalType": "string",
          "name": "ipfsCID",
          "type": "string"
        }
      ],
      "name": "addPicture",
      "outputs": [],
      "stateMutability": "nonpayable",
      "type": "function"
    },
    {
      "inputs": [
        {
          "internalType": "uint256",
          "name": "",
          "type": "uint256"
        }
      ],
      "name": "albums",
      "outputs": [
        {
          "internalType": "address",
          "name": "owner",
          "type": "address"
        },
        {
          "internalType": "string",
          "name": "name",
          "type": "string"
        },
        {
          "internalType": "uint256",
          "name": "createdAt",
          "type": "uint256"
        }
      ],
      "stateMutability": "view",
      "type": "function"
    },
    {
      "inputs": [
        {
          "internalType": "address",
          "name": "owner",
          "type": "address"
        },
        {
          "internalType": "address",
          "name": "spender",
          "type": "address"
        }
      ],
      "name": "allowance",
      "outputs": [
        {
          "internalType": "uint256",
          "name": "",
          "type": "uint256"
        }
      ],
      "stateMutability": "view",
      "type": "function"
    },
    {
      "inputs": [
        {
          "internalType": "address",
          "name": "spender",
          "type": "address"
        },
        {
          "internalType": "uint256",
          "name": "value",
          "type": "uint256"
        }
      ],
      "name": "approve",
      "outputs": [
        {
          "internalType": "bool",
          "name": "",
          "type": "bool"
        }
      ],
      "stateMutability": "nonpayable",
      "type": "function"
    },
    {
      "inputs": [
        {
          "internalType": "address",
          "name": "account",
          "type": "address"
        }
      ],
      "name": "balanceOf",
      "outputs": [
        {
          "internalType": "uint256",
          "name": "",
          "type": "uint256"
        }
      ],
      "stateMutability": "view",
      "type": "function"
    },
    {
      "inputs": [
        {
          "internalType": "uint256",
          "name": "",
          "type": "uint256"
        }
      ],
      "name": "blogs",
      "outputs": [
        {
          "internalType": "address",
          "name": "owner",
          "type": "address"
        },
        {
          "internalType": "string",
          "name": "name",
          "type": "string"
        },
        {
          "internalType": "string",
          "name": "intro",
          "type": "string"
        },
        {
          "internalType": "string",
          "name": "ipfsCID",
          "type": "string"
        },
        {
          "internalType": "uint256",
          "name": "price",
          "type": "uint256"
        },
        {
          "internalType": "uint256",
          "name": "viewCount",
          "type": "uint256"
        },
        {
          "internalType": "uint256",
          "name": "publishDate",
          "type": "uint256"
        },
        {
          "internalType": "uint256",
          "name": "commentCount",
          "type": "uint256"
        }
      ],
      "stateMutability": "view",
      "type": "function"
    },
    {
      "inputs": [],
      "name": "claimTokens",
      "outputs": [],
      "stateMutability": "nonpayable",
      "type": "function"
    },
    {
      "inputs": [
        {
          "internalType": "string",
          "name": "name",
          "type": "string"
        }
      ],
      "name": "createAlbum",
      "outputs": [
        {
          "internalType": "uint256",
          "name": "",
          "type": "uint256"
        }
      ],
      "stateMutability": "nonpayable",
      "type": "function"
    },
    {
      "inputs": [
        {
          "internalType": "uint256",
          "name": "blogId",
          "type": "uint256"
        },
        {
          "internalType": "string",
          "name": "reason",
          "type": "string"
        }
      ],
      "name": "createHideProposal",
      "outputs": [],
      "stateMutability": "nonpayable",
      "type": "function"
    },
    {
      "inputs": [],
      "name": "decimals",
      "outputs": [
        {
          "internalType": "uint8",
          "name": "",
          "type": "uint8"
        }
      ],
      "stateMutability": "view",
      "type": "function"
    },
    {
      "inputs": [
        {
          "internalType": "uint256",
          "name": "albumId",
          "type": "uint256"
        },
        {
          "internalType": "uint256",
          "name": "pictureIndex",
          "type": "uint256"
        }
      ],
      "name": "deletePicture",
      "outputs": [],
      "stateMutability": "nonpayable",
      "type": "function"
    },
    {
      "inputs": [
        {
          "internalType": "uint256",
          "name": "proposalId",
          "type": "uint256"
        }
      ],
      "name": "executeProposal",
      "outputs": [],
      "stateMutability": "nonpayable",
      "type": "function"
    },
    {
      "inputs": [
        {
          "internalType": "uint256",
          "name": "albumId",
          "type": "uint256"
        }
      ],
      "name": "getAlbumCover",
      "outputs": [
        {
          "internalType": "string",
          "name": "",
          "type": "string"
        }
      ],
      "stateMutability": "view",
      "type": "function"
    },
    {
      "inputs": [
        {
          "internalType": "uint256",
          "name": "albumId",
          "type": "uint256"
        }
      ],
      "name": "getAlbumVisiblePictures",
      "outputs": [
        {
          "internalType": "string[]",
          "name": "",
          "type": "string[]"
        }
      ],
      "stateMutability": "view",
      "type": "function"
    },
    {
      "inputs": [
        {
          "internalType": "address",
          "name": "user",
          "type": "address"
        }
      ],
      "name": "getAvatar",
      "outputs": [
        {
          "internalType": "string",
          "name": "",
          "type": "string"
        }
      ],
      "stateMutability": "view",
      "type": "function"
    },
    {
      "inputs": [],
      "name": "getBlogCount",
      "outputs": [
        {
          "internalType": "uint256",
          "name": "",
          "type": "uint256"
        }
      ],
      "stateMutability": "view",
      "type": "function"
    },
    {
      "inputs": [
        {
          "internalType": "uint256",
          "name": "blogId",
          "type": "uint256"
        }
      ],
      "name": "getBlogDetail",
      "outputs": [
        {
          "components": [
            {
              "internalType": "address",
              "name": "owner",
              "type": "address"
            },
            {
              "internalType": "string",
              "name": "name",
              "type": "string"
            },
            {
              "internalType": "string",
              "name": "intro",
              "type": "string"
            },
            {
              "internalType": "string",
              "name": "ipfsCID",
              "type": "string"
            },
            {
              "internalType": "uint256",
              "name": "price",
              "type": "uint256"
            },
            {
              "internalType": "uint256",
              "name": "viewCount",
              "type": "uint256"
            },
            {
              "internalType": "uint256",
              "name": "publishDate",
              "type": "uint256"
            },
            {
              "internalType": "bool",
              "name": "isHidden",
              "type": "bool"
            }
          ],
          "internalType": "struct BlogStorage.BlogDetail",
          "name": "",
          "type": "tuple"
        }
      ],
      "stateMutability": "view",
      "type": "function"
    },
    {
      "inputs": [
        {
          "internalType": "uint256",
          "name": "blogId",
          "type": "uint256"
        },
        {
          "internalType": "uint256",
          "name": "commentId",
          "type": "uint256"
        }
      ],
      "name": "getComment",
      "outputs": [
        {
          "internalType": "address",
          "name": "buyer",
          "type": "address"
        },
        {
          "internalType": "uint256",
          "name": "date",
          "type": "uint256"
        },
        {
          "internalType": "string",
          "name": "content",
          "type": "string"
        }
      ],
      "stateMutability": "view",
      "type": "function"
    },
    {
      "inputs": [
        {
          "internalType": "address",
          "name": "user",
          "type": "address"
        }
      ],
      "name": "getUserAlbums",
      "outputs": [
        {
          "internalType": "uint256[]",
          "name": "",
          "type": "uint256[]"
        }
      ],
      "stateMutability": "view",
      "type": "function"
    },
    {
      "inputs": [
        {
          "internalType": "address",
          "name": "user",
          "type": "address"
        }
      ],
      "name": "getUserPublishedBlogs",
      "outputs": [
        {
          "internalType": "uint256[]",
          "name": "",
          "type": "uint256[]"
        }
      ],
      "stateMutability": "view",
      "type": "function"
    },
    {
      "inputs": [
        {
          "internalType": "address",
          "name": "user",
          "type": "address"
        }
      ],
      "name": "getUserPurchasedBlogs",
      "outputs": [
        {
          "internalType": "uint256[]",
          "name": "",
          "type": "uint256[]"
        }
      ],
      "stateMutability": "view",
      "type": "function"
    },
    {
      "inputs": [
        {
          "internalType": "address",
          "name": "user",
          "type": "address"
        }
      ],
      "name": "getUsername",
      "outputs": [
        {
          "internalType": "string",
          "name": "",
          "type": "string"
        }
      ],
      "stateMutability": "view",
      "type": "function"
    },
    {
      "inputs": [
        {
          "internalType": "address",
          "name": "",
          "type": "address"
        },
        {
          "internalType": "uint256",
          "name": "",
          "type": "uint256"
        }
      ],
      "name": "hasPurchased",
      "outputs": [
        {
          "internalType": "bool",
          "name": "",
          "type": "bool"
        }
      ],
      "stateMutability": "view",
      "type": "function"
    },
    {
      "inputs": [
        {
          "internalType": "address",
          "name": "",
          "type": "address"
        },
        {
          "internalType": "uint256",
          "name": "",
          "type": "uint256"
        }
      ],
      "name": "hasViewed",
      "outputs": [
        {
          "internalType": "bool",
          "name": "",
          "type": "bool"
        }
      ],
      "stateMutability": "view",
      "type": "function"
    },
    {
      "inputs": [
        {
          "internalType": "uint256",
          "name": "",
          "type": "uint256"
        },
        {
          "internalType": "address",
          "name": "",
          "type": "address"
        }
      ],
      "name": "hasVotedOnProposal",
      "outputs": [
        {
          "internalType": "bool",
          "name": "",
          "type": "bool"
        }
      ],
      "stateMutability": "view",
      "type": "function"
    },
    {
      "inputs": [
        {
          "internalType": "uint256",
          "name": "",
          "type": "uint256"
        }
      ],
      "name": "isBlogHidden",
      "outputs": [
        {
          "internalType": "bool",
          "name": "",
          "type": "bool"
        }
      ],
      "stateMutability": "view",
      "type": "function"
    },
    {
      "inputs": [
        {
          "internalType": "address",
          "name": "",
          "type": "address"
        }
      ],
      "name": "lastFaucetTime",
      "outputs": [
        {
          "internalType": "uint256",
          "name": "",
          "type": "uint256"
        }
      ],
      "stateMutability": "view",
      "type": "function"
    },
    {
      "inputs": [],
      "name": "name",
      "outputs": [
        {
          "internalType": "string",
          "name": "",
          "type": "string"
        }
      ],
      "stateMutability": "view",
      "type": "function"
    },
    {
      "inputs": [],
      "name": "proposalCount",
      "outputs": [
        {
          "internalType": "uint256",
          "name": "",
          "type": "uint256"
        }
      ],
      "stateMutability": "view",
      "type": "function"
    },
    {
      "inputs": [
        {
          "internalType": "uint256",
          "name": "",
          "type": "uint256"
        }
      ],
      "name": "proposals",
      "outputs": [
        {
          "internalType": "uint256",
          "name": "blogId",
          "type": "uint256"
        },
        {
          "internalType": "address",
          "name": "proposer",
          "type": "address"
        },
        {
          "internalType": "string",
          "name": "reason",
          "type": "string"
        },
        {
          "internalType": "uint256",
          "name": "votesFor",
          "type": "uint256"
        },
        {
          "internalType": "uint256",
          "name": "endTime",
          "type": "uint256"
        },
        {
          "internalType": "bool",
          "name": "executed",
          "type": "bool"
        }
      ],
      "stateMutability": "view",
      "type": "function"
    },
    {
      "inputs": [
        {
          "internalType": "string",
          "name": "name",
          "type": "string"
        },
        {
          "internalType": "string",
          "name": "intro",
          "type": "string"
        },
        {
          "internalType": "string",
          "name": "ipfsCID",
          "type": "string"
        },
        {
          "internalType": "uint256",
          "name": "price",
          "type": "uint256"
        }
      ],
      "name": "publishBlog",
      "outputs": [
        {
          "internalType": "uint256",
          "name": "blogId",
          "type": "uint256"
        },
        {
          "internalType": "string",
          "name": "cid",
          "type": "string"
        }
      ],
      "stateMutability": "nonpayable",
      "type": "function"
    },
    {
      "inputs": [
        {
          "internalType": "uint256",
          "name": "blogId",
          "type": "uint256"
        }
      ],
      "name": "purchaseBlog",
      "outputs": [],
      "stateMutability": "nonpayable",
      "type": "function"
    },
    {
      "inputs": [
        {
          "internalType": "string",
          "name": "cid",
          "type": "string"
        }
      ],
      "name": "setAvatar",
      "outputs": [],
      "stateMutability": "nonpayable",
      "type": "function"
    },
    {
      "inputs": [
        {
          "internalType": "string",
          "name": "name",
          "type": "string"
        }
      ],
      "name": "setUsername",
      "outputs": [],
      "stateMutability": "nonpayable",
      "type": "function"
    },
    {
      "inputs": [],
      "name": "symbol",
      "outputs": [
        {
          "internalType": "string",
          "name": "",
          "type": "string"
        }
      ],
      "stateMutability": "view",
      "type": "function"
    },
    {
      "inputs": [],
      "name": "totalSupply",
      "outputs": [
        {
          "internalType": "uint256",
          "name": "",
          "type": "uint256"
        }
      ],
      "stateMutability": "view",
      "type": "function"
    },
    {
      "inputs": [
        {
          "internalType": "address",
          "name": "to",
          "type": "address"
        },
        {
          "internalType": "uint256",
          "name": "value",
          "type": "uint256"
        }
      ],
      "name": "transfer",
      "outputs": [
        {
          "internalType": "bool",
          "name": "",
          "type": "bool"
        }
      ],
      "stateMutability": "nonpayable",
      "type": "function"
    },
    {
      "inputs": [
        {
          "internalType": "address",
          "name": "from",
          "type": "address"
        },
        {
          "internalType": "address",
          "name": "to",
          "type": "address"
        },
        {
          "internalType": "uint256",
          "name": "value",
          "type": "uint256"
        }
      ],
      "name": "transferFrom",
      "outputs": [
        {
          "internalType": "bool",
          "name": "",
          "type": "bool"
        }
      ],
      "stateMutability": "nonpayable",
      "type": "function"
    },
    {
      "inputs": [
        {
          "internalType": "address",
          "name": "",
          "type": "address"
        },
        {
          "internalType": "uint256",
          "name": "",
          "type": "uint256"
        }
      ],
      "name": "userAlbumsList",
      "outputs": [
        {
          "internalType": "uint256",
          "name": "",
          "type": "uint256"
        }
      ],
      "stateMutability": "view",
      "type": "function"
    },
    {
      "inputs": [
        {
          "internalType": "uint256",
          "name": "blogId",
          "type": "uint256"
        }
      ],
      "name": "viewBlog",
      "outputs": [],
      "stateMutability": "nonpayable",
      "type": "function"
    },
    {
      "inputs": [
        {
          "internalType": "uint256",
          "name": "proposalId",
          "type": "uint256"
        }
      ],
      "name": "voteOnProposal",
      "outputs": [],
      "stateMutability": "nonpayable",
      "type": "function"
    }
  ],
  "bytecode": "0x608060405234801561000f575f5ffd5b506040518060400160405280600981526020017f426c6f67546f6b656e00000000000000000000000000000000000000000000008152506040518060400160405280600381526020017f424c470000000000000000000000000000000000000000000000000000000000815250816003908161008b91906105a7565b50806004908161009b91906105a7565b5050506100b633670de0b6b3a76400006100bb60201b60201c565b61078b565b5f73ffffffffffffffffffffffffffffffffffffffff168273ffffffffffffffffffffffffffffffffffffffff160361012b575f6040517fec442f0500000000000000000000000000000000000000000000000000000000815260040161012291906106b5565b60405180910390fd5b61013c5f838361014060201b60201c565b5050565b5f73ffffffffffffffffffffffffffffffffffffffff168373ffffffffffffffffffffffffffffffffffffffff1603610190578060025f82825461018491906106fb565b9250508190555061025e565b5f5f5f8573ffffffffffffffffffffffffffffffffffffffff1673ffffffffffffffffffffffffffffffffffffffff1681526020019081526020015f2054905081811015610219578381836040517fe450d38c0000000000000000000000000000000000000000000000000000000081526004016102109392919061073d565b60405180910390fd5b8181035f5f8673ffffffffffffffffffffffffffffffffffffffff1673ffffffffffffffffffffffffffffffffffffffff1681526020019081526020015f2081905550505b5f73ffffffffffffffffffffffffffffffffffffffff168273ffffffffffffffffffffffffffffffffffffffff16036102a5578060025f82825403925050819055506102ef565b805f5f8473ffffffffffffffffffffffffffffffffffffffff1673ffffffffffffffffffffffffffffffffffffffff1681526020019081526020015f205f82825401925050819055505b8173ffffffffffffffffffffffffffffffffffffffff168373ffffffffffffffffffffffffffffffffffffffff167fddf252ad1be2c89b69c2b068fc378daa952ba7f163c4a11628f55a4df523b3ef8360405161034c9190610772565b60405180910390a3505050565b5f81519050919050565b7f4e487b71000000000000000000000000000000000000000000000000000000005f52604160045260245ffd5b7f4e487b71000000000000000000000000000000000000000000000000000000005f52602260045260245ffd5b5f60028204905060018216806103d457607f821691505b6020821081036103e7576103e6610390565b5b50919050565b5f819050815f5260205f209050919050565b5f6020601f8301049050919050565b5f82821b905092915050565b5f600883026104497fffffffffffffffffffffffffffffffffffffffffffffffffffffffffffffffff8261040e565b610453868361040e565b95508019841693508086168417925050509392505050565b5f819050919050565b5f819050919050565b5f61049761049261048d8461046b565b610474565b61046b565b9050919050565b5f819050919050565b6104b08361047d565b6104c46104bc8261049e565b84845461041a565b825550505050565b5f5f905090565b6104db6104cc565b6104e68184846104a7565b505050565b5f5b8281101561050c576105015f8284016104d3565b6001810190506104ed565b505050565b601f82111561055f578282111561055e5761052b816103ed565b610534836103ff565b61053d856103ff565b602086101561054a575f90505b808301610559828403826104eb565b505050505b5b505050565b5f82821c905092915050565b5f61057f5f1984600802610564565b1980831691505092915050565b5f6105978383610570565b9150826002028217905092915050565b6105b082610359565b67ffffffffffffffff8111156105c9576105c8610363565b5b6105d382546103bd565b6105de828285610511565b5f60209050601f83116001811461060f575f84156105fd578287015190505b610607858261058c565b86555061066e565b601f19841661061d866103ed565b5f5b828110156106445784890151825560018201915060208501945060208101905061061f565b86831015610661578489015161065d601f891682610570565b8355505b6001600288020188555050505b505050505050565b5f73ffffffffffffffffffffffffffffffffffffffff82169050919050565b5f61069f82610676565b9050919050565b6106af81610695565b82525050565b5f6020820190506106c85f8301846106a6565b92915050565b7f4e487b71000000000000000000000000000000000000000000000000000000005f52601160045260245ffd5b5f6107058261046b565b91506107108361046b565b9250828201905080821115610728576107276106ce565b5b92915050565b6107378161046b565b82525050565b5f6060820190506107505f8301866106a6565b61075d602083018561072e565b61076a604083018461072e565b949350505050565b5f6020820190506107855f83018461072e565b92915050565b6157b1806107985f395ff3fe608060405234801561000f575f5ffd5b5060043610610288575f3560e01c806380f052d81161015a578063baca925c116100cc578063dd62ed3e11610085578063dd62ed3e146108a1578063e8a243d9146108d1578063e9499f2714610901578063ea5df05914610931578063ed59313a14610963578063f504db521461097f57610288565b8063baca925c146107b9578063c7fe017e146107e9578063c8b71c9514610805578063ce43c03214610823578063ce8ac03314610853578063da35c6641461088357610288565b806398d53a8f1161011e57806398d53a8f146106d3578063a438d208146106ef578063a9059cbb1461070d578063aa7e56831461073d578063acaff6821461076d578063add68edc1461079d57610288565b806380f052d8146105ed57806386a5be711461062457806388869bd41461065557806395d89b411461068557806398b87125146106a357610288565b80633c3eea6f116101fe578063671dd275116101b7578063671dd275146105175780636ec5239f1461053557806370a082311461055157806376697640146105815780637bc1f6cc1461059f5780637d1d5d19146105cf57610288565b80633c3eea6f14610443578063488927531461045f57806348c54b9d146104915780634abb7c001461049b5780635272fb5b146104b7578063600303d8146104e757610288565b80631192313211610250578063119231321461035b57806313aa08761461038b57806318160ddd146103bb57806323b872dd146103d95780632b809e3314610409578063313ce5671461042557610288565b8063013cf08b1461028c57806306fdde03146102c1578063095ea7b3146102df5780630d61b5191461030f578063114b290f1461032b575b5f5ffd5b6102a660048036038101906102a19190613d49565b6109af565b6040516102b896959493929190613e4c565b60405180910390f35b6102c9610a98565b6040516102d69190613eb2565b60405180910390f35b6102f960048036038101906102f49190613efc565b610b28565b6040516103069190613f3a565b60405180910390f35b61032960048036038101906103249190613d49565b610b4a565b005b61034560048036038101906103409190613d49565b610ce0565b6040516103529190614083565b60405180910390f35b61037560048036038101906103709190613efc565b610f95565b6040516103829190613f3a565b60405180910390f35b6103a560048036038101906103a091906140a3565b610fbf565b6040516103b29190614176565b60405180910390f35b6103c3611055565b6040516103d09190614196565b60405180910390f35b6103f360048036038101906103ee91906141af565b61105e565b6040516104009190613f3a565b60405180910390f35b610423600480360381019061041e9190613d49565b61108c565b005b61042d6113d6565b60405161043a919061421a565b60405180910390f35b61045d60048036038101906104589190614233565b6113de565b005b61047960048036038101906104749190614233565b61160d565b60405161048893929190614271565b60405180910390f35b61049961179c565b005b6104b560048036038101906104b0919061430e565b6118d8565b005b6104d160048036038101906104cc91906140a3565b611b2e565b6040516104de9190614176565b60405180910390f35b61050160048036038101906104fc919061436b565b611bc1565b60405161050e9190613f3a565b60405180910390f35b61051f611beb565b60405161052c9190614196565b60405180910390f35b61054f600480360381019061054a91906143a9565b611bf8565b005b61056b600480360381019061056691906140a3565b611c9c565b6040516105789190614196565b60405180910390f35b610589611ce1565b6040516105969190614196565b60405180910390f35b6105b960048036038101906105b491906140a3565b611cee565b6040516105c69190614196565b60405180910390f35b6105d7611d03565b6040516105e49190614196565b60405180910390f35b61060760048036038101906106029190613d49565b611d0a565b60405161061b9897969594939291906143f4565b60405180910390f35b61063e60048036038101906106399190614485565b611f0e565b60405161064c929190614549565b60405180910390f35b61066f600480360381019061066a91906140a3565b61217a565b60405161067c9190614176565b60405180910390f35b61068d61220f565b60405161069a9190613eb2565b60405180910390f35b6106bd60048036038101906106b89190613d49565b61229f565b6040516106ca9190613f3a565b60405180910390f35b6106ed60048036038101906106e8919061430e565b6122bc565b005b6106f76124fe565b6040516107049190614196565b60405180910390f35b61072760048036038101906107229190613efc565b612505565b6040516107349190613f3a565b60405180910390f35b6107576004803603810190610752919061430e565b612527565b6040516107649190614196565b60405180910390f35b61078760048036038101906107829190613efc565b61288c565b6040516107949190613f3a565b60405180910390f35b6107b760048036038101906107b29190613d49565b6128b6565b005b6107d360048036038101906107ce9190613efc565b612b0d565b6040516107e09190614196565b60405180910390f35b61080360048036038101906107fe9190613d49565b612b38565b005b61080d612d39565b60405161081a9190614196565b60405180910390f35b61083d600480360381019061083891906140a3565b612d45565b60405161084a9190613eb2565b60405180910390f35b61086d600480360381019061086891906140a3565b612e15565b60405161087a9190613eb2565b60405180910390f35b61088b612ee5565b6040516108989190614196565b60405180910390f35b6108bb60048036038101906108b69190614577565b612eeb565b6040516108c89190614196565b60405180910390f35b6108eb60048036038101906108e69190613d49565b612f6d565b6040516108f89190614670565b60405180910390f35b61091b600480360381019061091691906143a9565b6131d5565b6040516109289190614196565b60405180910390f35b61094b60048036038101906109469190613d49565b613360565b60405161095a93929190614690565b60405180910390f35b61097d600480360381019061097891906143a9565b61343a565b005b61099960048036038101906109949190613d49565b613523565b6040516109a69190613eb2565b60405180910390f35b600a602052805f5260405f205f91509050805f015490806001015f9054906101000a900473ffffffffffffffffffffffffffffffffffffffff16908060020180546109f9906146f9565b80601f0160208091040260200160405190810160405280929190818152602001828054610a25906146f9565b8015610a705780601f10610a4757610100808354040283529160200191610a70565b820191905f5260205f20905b815481529060010190602001808311610a5357829003601f168201915b505050505090806003015490806004015490806005015f9054906101000a900460ff16905086565b606060038054610aa7906146f9565b80601f0160208091040260200160405190810160405280929190818152602001828054610ad3906146f9565b8015610b1e5780601f10610af557610100808354040283529160200191610b1e565b820191905f5260205f20905b815481529060010190602001808311610b0157829003601f168201915b5050505050905090565b5f5f610b326136b3565b9050610b3f8185856136ba565b600191505092915050565b600b548110610b8e576040517f08c379a0000000000000000000000000000000000000000000000000000000008152600401610b8590614773565b60405180910390fd5b5f600a5f8381526020019081526020015f2090508060040154421015610be9576040517f08c379a0000000000000000000000000000000000000000000000000000000008152600401610be0906147db565b60405180910390fd5b806005015f9054906101000a900460ff1615610c3a576040517f08c379a0000000000000000000000000000000000000000000000000000000008152600401610c3190614843565b60405180910390fd5b6001816005015f6101000a81548160ff0219169083151502179055505f5f9050681b1ae4d6e2ef500000826003015410610c9f576001600d5f845f015481526020019081526020015f205f6101000a81548160ff021916908315150217905550600190505b815f0154837f675c71fb6cbf880ec8fed9c345ef0bb3019cc44b99708edb402b85a7535d7d1983604051610cd39190613f3a565b60405180910390a3505050565b610ce8613cb6565b6005805490508210610d2f576040517f08c379a0000000000000000000000000000000000000000000000000000000008152600401610d26906148ab565b60405180910390fd5b5f60058381548110610d4457610d436148c9565b5b905f5260205f2090600902019050604051806101000160405280825f015f9054906101000a900473ffffffffffffffffffffffffffffffffffffffff1673ffffffffffffffffffffffffffffffffffffffff168152602001826001018054610dab906146f9565b80601f0160208091040260200160405190810160405280929190818152602001828054610dd7906146f9565b8015610e225780601f10610df957610100808354040283529160200191610e22565b820191905f5260205f20905b815481529060010190602001808311610e0557829003601f168201915b50505050508152602001826002018054610e3b906146f9565b80601f0160208091040260200160405190810160405280929190818152602001828054610e67906146f9565b8015610eb25780601f10610e8957610100808354040283529160200191610eb2565b820191905f5260205f20905b815481529060010190602001808311610e9557829003601f168201915b50505050508152602001826003018054610ecb906146f9565b80601f0160208091040260200160405190810160405280929190818152602001828054610ef7906146f9565b8015610f425780601f10610f1957610100808354040283529160200191610f42565b820191905f5260205f20905b815481529060010190602001808311610f2557829003601f168201915b50505050508152602001826004015481526020018260050154815260200182600601548152602001600d5f8681526020019081526020015f205f9054906101000a900460ff161515815250915050919050565b6007602052815f5260405f20602052805f5260405f205f915091509054906101000a900460ff1681565b606060065f8373ffffffffffffffffffffffffffffffffffffffff1673ffffffffffffffffffffffffffffffffffffffff1681526020019081526020015f2060010180548060200260200160405190810160405280929190818152602001828054801561104957602002820191905f5260205f20905b815481526020019060010190808311611035575b50505050509050919050565b5f600254905090565b5f5f6110686136b3565b90506110758582856136cc565b61108085858561375f565b60019150509392505050565b60058054905081106110d3576040517f08c379a00000000000000000000000000000000000000000000000000000000081526004016110ca906148ab565b60405180910390fd5b600d5f8281526020019081526020015f205f9054906101000a900460ff1615611131576040517f08c379a000000000000000000000000000000000000000000000000000000000815260040161112890614940565b60405180910390fd5b5f60058281548110611146576111456148c9565b5b905f5260205f20906009020190503373ffffffffffffffffffffffffffffffffffffffff16815f015f9054906101000a900473ffffffffffffffffffffffffffffffffffffffff1673ffffffffffffffffffffffffffffffffffffffff16036111e4576040517f08c379a00000000000000000000000000000000000000000000000000000000081526004016111db906149a8565b60405180910390fd5b60075f3373ffffffffffffffffffffffffffffffffffffffff1673ffffffffffffffffffffffffffffffffffffffff1681526020019081526020015f205f8381526020019081526020015f205f9054906101000a900460ff161561127d576040517f08c379a000000000000000000000000000000000000000000000000000000000815260040161127490614a10565b60405180910390fd5b5f816004015490505f8111156112bb576112ba33835f015f9054906101000a900473ffffffffffffffffffffffffffffffffffffffff168361375f565b5b600160075f3373ffffffffffffffffffffffffffffffffffffffff1673ffffffffffffffffffffffffffffffffffffffff1681526020019081526020015f205f8581526020019081526020015f205f6101000a81548160ff02191690831515021790555060065f3373ffffffffffffffffffffffffffffffffffffffff1673ffffffffffffffffffffffffffffffffffffffff1681526020019081526020015f205f0183908060018154018082558091505060019003905f5260205f20015f9091909190915055823373ffffffffffffffffffffffffffffffffffffffff167f2699821cb1d56670c4514baa415187378c51dd6c432312456c70a83e13d51de8836040516113c99190614196565b60405180910390a3505050565b5f6012905090565b600e805490508210611425576040517f08c379a000000000000000000000000000000000000000000000000000000000815260040161141c90614a78565b60405180910390fd5b5f600e838154811061143a576114396148c9565b5b905f5260205f20906004020190503373ffffffffffffffffffffffffffffffffffffffff16815f015f9054906101000a900473ffffffffffffffffffffffffffffffffffffffff1673ffffffffffffffffffffffffffffffffffffffff16146114d8576040517f08c379a00000000000000000000000000000000000000000000000000000000081526004016114cf90614ae0565b60405180910390fd5b80600301805490508210611521576040517f08c379a000000000000000000000000000000000000000000000000000000000815260040161151890614b48565b60405180910390fd5b806003018281548110611537576115366148c9565b5b905f5260205f2090600302016001015f9054906101000a900460ff1615611593576040517f08c379a000000000000000000000000000000000000000000000000000000000815260040161158a90614bb0565b60405180910390fd5b60018160030183815481106115ab576115aa6148c9565b5b905f5260205f2090600302016001015f6101000a81548160ff021916908315150217905550827f70c54b7a7ea03cbee2ffafee087a68096f125f384cfb3d2569a41de239755689836040516116009190614196565b60405180910390a2505050565b5f5f60606005805490508510611658576040517f08c379a000000000000000000000000000000000000000000000000000000000815260040161164f90614c18565b60405180910390fd5b5f6005868154811061166d5761166c6148c9565b5b905f5260205f2090600902019050806007015485106116c1576040517f08c379a00000000000000000000000000000000000000000000000000000000081526004016116b890614c80565b60405180910390fd5b5f816008015f8781526020019081526020015f209050805f015f9054906101000a900473ffffffffffffffffffffffffffffffffffffffff1681600101548260020180805461170f906146f9565b80601f016020809104026020016040519081016040528092919081815260200182805461173b906146f9565b80156117865780601f1061175d57610100808354040283529160200191611786565b820191905f5260205f20905b81548152906001019060200180831161176957829003601f168201915b5050505050905094509450945050509250925092565b6201518060095f3373ffffffffffffffffffffffffffffffffffffffff1673ffffffffffffffffffffffffffffffffffffffff1681526020019081526020015f20546117e89190614ccb565b42101561182a576040517f08c379a000000000000000000000000000000000000000000000000000000000815260040161182190614d48565b60405180910390fd5b4260095f3373ffffffffffffffffffffffffffffffffffffffff1673ffffffffffffffffffffffffffffffffffffffff1681526020019081526020015f208190555061187f3368056bc75e2d6310000061384f565b3373ffffffffffffffffffffffffffffffffffffffff167f5d4f415c63cd8a5874d9d291cdd64cec37e5dc236d90d659c958d109d78074b368056bc75e2d631000006040516118ce9190614196565b60405180910390a2565b600e80549050831061191f576040517f08c379a000000000000000000000000000000000000000000000000000000000815260040161191690614a78565b60405180910390fd5b5f8282905011611964576040517f08c379a000000000000000000000000000000000000000000000000000000000815260040161195b90614db0565b60405180910390fd5b5f600e8481548110611979576119786148c9565b5b905f5260205f20906004020190503373ffffffffffffffffffffffffffffffffffffffff16815f015f9054906101000a900473ffffffffffffffffffffffffffffffffffffffff1673ffffffffffffffffffffffffffffffffffffffff1614611a17576040517f08c379a0000000000000000000000000000000000000000000000000000000008152600401611a0e90614e18565b60405180910390fd5b5f8160030180549050905081600301604051806060016040528086868080601f0160208091040260200160405190810160405280939291908181526020018383808284375f81840152601f19601f8201169050808301925050505050505081526020015f1515815260200142815250908060018154018082558091505060019003905f5260205f2090600302015f909190919091505f820151815f019081611abf9190615014565b506020820151816001015f6101000a81548160ff021916908315150217905550604082015181600201555050847f0173fd727291d1fb78ddf9036766049856b0614ef064d277e6761f948f49bc9c828686604051611b1f9392919061511d565b60405180910390a25050505050565b6060600f5f8373ffffffffffffffffffffffffffffffffffffffff1673ffffffffffffffffffffffffffffffffffffffff1681526020019081526020015f20805480602002602001604051908101604052809291908181526020018280548015611bb557602002820191905f5260205f20905b815481526020019060010190808311611ba1575b50505050509050919050565b600c602052815f5260405f20602052805f5260405f205f915091509054906101000a900460ff1681565b681b1ae4d6e2ef50000081565b818160065f3373ffffffffffffffffffffffffffffffffffffffff1673ffffffffffffffffffffffffffffffffffffffff1681526020019081526020015f206002019182611c47929190615157565b503373ffffffffffffffffffffffffffffffffffffffff167fed6fbee54fb754678a908527ed51cf00840e56cca6b00760c99382dccf6866f98383604051611c90929190615224565b60405180910390a25050565b5f5f5f8373ffffffffffffffffffffffffffffffffffffffff1673ffffffffffffffffffffffffffffffffffffffff1681526020019081526020015f20549050919050565b68056bc75e2d6310000081565b6009602052805f5260405f205f915090505481565b6201518081565b60058181548110611d19575f80fd5b905f5260205f2090600902015f91509050805f015f9054906101000a900473ffffffffffffffffffffffffffffffffffffffff1690806001018054611d5d906146f9565b80601f0160208091040260200160405190810160405280929190818152602001828054611d89906146f9565b8015611dd45780601f10611dab57610100808354040283529160200191611dd4565b820191905f5260205f20905b815481529060010190602001808311611db757829003601f168201915b505050505090806002018054611de9906146f9565b80601f0160208091040260200160405190810160405280929190818152602001828054611e15906146f9565b8015611e605780601f10611e3757610100808354040283529160200191611e60565b820191905f5260205f20905b815481529060010190602001808311611e4357829003601f168201915b505050505090806003018054611e75906146f9565b80601f0160208091040260200160405190810160405280929190818152602001828054611ea1906146f9565b8015611eec5780601f10611ec357610100808354040283529160200191611eec565b820191905f5260205f20905b815481529060010190602001808311611ecf57829003601f168201915b5050505050908060040154908060050154908060060154908060070154905088565b5f60605f8989905011611f56576040517f08c379a0000000000000000000000000000000000000000000000000000000008152600401611f4d90615290565b60405180910390fd5b5f8585905011611f9b576040517f08c379a0000000000000000000000000000000000000000000000000000000008152600401611f92906152f8565b60405180910390fd5b60058054905091505f600560018160018154018082558091505003905f5260205f209060090201905033815f015f6101000a81548173ffffffffffffffffffffffffffffffffffffffff021916908373ffffffffffffffffffffffffffffffffffffffff1602179055508989826001019182612018929190615157565b50878782600201918261202c929190615157565b508585826003019182612040929190615157565b508381600401819055505f81600501819055504281600601819055505f816007018190555060065f3373ffffffffffffffffffffffffffffffffffffffff1673ffffffffffffffffffffffffffffffffffffffff1681526020019081526020015f2060010183908060018154018082558091505060019003905f5260205f20015f9091909190915055823373ffffffffffffffffffffffffffffffffffffffff167f6caa18e05745789fd2c15ae40ed7d9c896c4127fc2816f404f3595b80fa9a4b688888e8e6040516121169493929190615316565b60405180910390a382868681818080601f0160208091040260200160405190810160405280939291908181526020018383808284375f81840152601f19601f8201169050808301925050505050505090509050925092505097509795505050505050565b606060065f8373ffffffffffffffffffffffffffffffffffffffff1673ffffffffffffffffffffffffffffffffffffffff1681526020019081526020015f205f0180548060200260200160405190810160405280929190818152602001828054801561220357602002820191905f5260205f20905b8154815260200190600101908083116121ef575b50505050509050919050565b60606004805461221e906146f9565b80601f016020809104026020016040519081016040528092919081815260200182805461224a906146f9565b80156122955780601f1061226c57610100808354040283529160200191612295565b820191905f5260205f20905b81548152906001019060200180831161227857829003601f168201915b5050505050905090565b600d602052805f5260405f205f915054906101000a900460ff1681565b6005805490508310612303576040517f08c379a00000000000000000000000000000000000000000000000000000000081526004016122fa90614c18565b60405180910390fd5b600d5f8481526020019081526020015f205f9054906101000a900460ff1615612361576040517f08c379a000000000000000000000000000000000000000000000000000000000815260040161235890615399565b60405180910390fd5b5f600b5f815480929190612374906153b7565b9190505590506040518060c001604052808581526020013373ffffffffffffffffffffffffffffffffffffffff16815260200184848080601f0160208091040260200160405190810160405280939291908181526020018383808284375f81840152601f19601f8201169050808301925050505050505081526020015f81526020016203f480426124059190614ccb565b81526020015f1515815250600a5f8381526020019081526020015f205f820151815f01556020820151816001015f6101000a81548173ffffffffffffffffffffffffffffffffffffffff021916908373ffffffffffffffffffffffffffffffffffffffff16021790555060408201518160020190816124849190615014565b50606082015181600301556080820151816004015560a0820151816005015f6101000a81548160ff02191690831515021790555090505083817f6f3322e9e9bcd9739d7dcbb73278ee28b363d39f7900bd404831ee8dfb41608e3386866040516124f0939291906153fe565b60405180910390a350505050565b6203f48081565b5f5f61250f6136b3565b905061251c81858561375f565b600191505092915050565b5f600580549050841061256f576040517f08c379a000000000000000000000000000000000000000000000000000000000815260040161256690614c18565b60405180910390fd5b600d5f8581526020019081526020015f205f9054906101000a900460ff16156125cd576040517f08c379a00000000000000000000000000000000000000000000000000000000081526004016125c490614940565b60405180910390fd5b5f8383905011612612576040517f08c379a000000000000000000000000000000000000000000000000000000000815260040161260990615478565b60405180910390fd5b5f60058581548110612627576126266148c9565b5b905f5260205f20906009020190505f60075f3373ffffffffffffffffffffffffffffffffffffffff1673ffffffffffffffffffffffffffffffffffffffff1681526020019081526020015f205f8781526020019081526020015f205f9054906101000a900460ff16905080806126ea5750815f015f9054906101000a900473ffffffffffffffffffffffffffffffffffffffff1673ffffffffffffffffffffffffffffffffffffffff163373ffffffffffffffffffffffffffffffffffffffff16145b612729576040517f08c379a0000000000000000000000000000000000000000000000000000000008152600401612720906154e0565b60405180910390fd5b5f8260070154905060405180606001604052803373ffffffffffffffffffffffffffffffffffffffff16815260200142815260200187878080601f0160208091040260200160405190810160405280939291908181526020018383808284375f81840152601f19601f82011690508083019250505050505050815250836008015f8381526020019081526020015f205f820151815f015f6101000a81548173ffffffffffffffffffffffffffffffffffffffff021916908373ffffffffffffffffffffffffffffffffffffffff16021790555060208201518160010155604082015181600201908161281b9190615014565b509050506001836007015f8282546128339190614ccb565b925050819055503373ffffffffffffffffffffffffffffffffffffffff1681887fdb54cde47150062529bc4f2e10c2493c8ae39bc079c9c24f9e365c135098d4bb60405160405180910390a48093505050509392505050565b6008602052815f5260405f20602052805f5260405f205f915091509054906101000a900460ff1681565b600b5481106128fa576040517f08c379a00000000000000000000000000000000000000000000000000000000081526004016128f190614773565b60405180910390fd5b5f600a5f8381526020019081526020015f20905080600401544210612954576040517f08c379a000000000000000000000000000000000000000000000000000000000815260040161294b90615548565b60405180910390fd5b600c5f8381526020019081526020015f205f3373ffffffffffffffffffffffffffffffffffffffff1673ffffffffffffffffffffffffffffffffffffffff1681526020019081526020015f205f9054906101000a900460ff16156129ed576040517f08c379a00000000000000000000000000000000000000000000000000000000081526004016129e4906155b0565b60405180910390fd5b5f6129f733611c9c565b90505f8111612a3b576040517f08c379a0000000000000000000000000000000000000000000000000000000008152600401612a3290615618565b60405180910390fd5b80826003015f828254612a4e9190614ccb565b925050819055506001600c5f8581526020019081526020015f205f3373ffffffffffffffffffffffffffffffffffffffff1673ffffffffffffffffffffffffffffffffffffffff1681526020019081526020015f205f6101000a81548160ff0219169083151502179055503373ffffffffffffffffffffffffffffffffffffffff16837f1abe610cf2bf87e57dcc1181fcf5ac0934e843d8344ab9eed6e86c799f62585e83604051612b009190614196565b60405180910390a3505050565b600f602052815f5260405f208181548110612b26575f80fd5b905f5260205f20015f91509150505481565b6005805490508110612b7f576040517f08c379a0000000000000000000000000000000000000000000000000000000008152600401612b76906148ab565b60405180910390fd5b600d5f8281526020019081526020015f205f9054906101000a900460ff1615612bdd576040517f08c379a0000000000000000000000000000000000000000000000000000000008152600401612bd490614940565b60405180910390fd5b60085f3373ffffffffffffffffffffffffffffffffffffffff1673ffffffffffffffffffffffffffffffffffffffff1681526020019081526020015f205f8281526020019081526020015f205f9054906101000a900460ff16612d3657600160085f3373ffffffffffffffffffffffffffffffffffffffff1673ffffffffffffffffffffffffffffffffffffffff1681526020019081526020015f205f8381526020019081526020015f205f6101000a81548160ff021916908315150217905550600160058281548110612cb457612cb36148c9565b5b905f5260205f2090600902016005015f828254612cd19190614ccb565b92505081905550807fb4412e7be9511bfd8e546e07ad63a2d958e15c96b72062659d429a14942a803360058381548110612d0e57612d0d6148c9565b5b905f5260205f2090600902016005015433604051612d2d929190615636565b60405180910390a25b50565b5f600580549050905090565b606060065f8373ffffffffffffffffffffffffffffffffffffffff1673ffffffffffffffffffffffffffffffffffffffff1681526020019081526020015f206003018054612d92906146f9565b80601f0160208091040260200160405190810160405280929190818152602001828054612dbe906146f9565b8015612e095780601f10612de057610100808354040283529160200191612e09565b820191905f5260205f20905b815481529060010190602001808311612dec57829003601f168201915b50505050509050919050565b606060065f8373ffffffffffffffffffffffffffffffffffffffff1673ffffffffffffffffffffffffffffffffffffffff1681526020019081526020015f206002018054612e62906146f9565b80601f0160208091040260200160405190810160405280929190818152602001828054612e8e906146f9565b8015612ed95780601f10612eb057610100808354040283529160200191612ed9565b820191905f5260205f20905b815481529060010190602001808311612ebc57829003601f168201915b50505050509050919050565b600b5481565b5f60015f8473ffffffffffffffffffffffffffffffffffffffff1673ffffffffffffffffffffffffffffffffffffffff1681526020019081526020015f205f8373ffffffffffffffffffffffffffffffffffffffff1673ffffffffffffffffffffffffffffffffffffffff1681526020019081526020015f2054905092915050565b6060600e805490508210612fb6576040517f08c379a0000000000000000000000000000000000000000000000000000000008152600401612fad90614a78565b60405180910390fd5b5f600e8381548110612fcb57612fca6148c9565b5b905f5260205f20906004020190505f5f90505f5f90505b826003018054905081101561304357826003018181548110613007576130066148c9565b5b905f5260205f2090600302016001015f9054906101000a900460ff16613036578180613032906153b7565b9250505b8080600101915050612fe2565b505f8167ffffffffffffffff81111561305f5761305e614e36565b5b60405190808252806020026020018201604052801561309257816020015b606081526020019060019003908161307d5790505b5090505f5f90505f5f90505b84600301805490508110156131c8578460030181815481106130c3576130c26148c9565b5b905f5260205f2090600302016001015f9054906101000a900460ff166131bb578460030181815481106130f9576130f86148c9565b5b905f5260205f2090600302015f018054613112906146f9565b80601f016020809104026020016040519081016040528092919081815260200182805461313e906146f9565b80156131895780601f1061316057610100808354040283529160200191613189565b820191905f5260205f20905b81548152906001019060200180831161316c57829003601f168201915b50505050508383815181106131a1576131a06148c9565b5b602002602001018190525081806131b7906153b7565b9250505b808060010191505061309e565b5081945050505050919050565b5f5f838390501161321b576040517f08c379a0000000000000000000000000000000000000000000000000000000008152600401613212906156a7565b60405180910390fd5b5f600e8054905090505f600e60018160018154018082558091505003905f5260205f209060040201905033815f015f6101000a81548173ffffffffffffffffffffffffffffffffffffffff021916908373ffffffffffffffffffffffffffffffffffffffff1602179055508484826001019182613299929190615157565b50428160020181905550600f5f3373ffffffffffffffffffffffffffffffffffffffff1673ffffffffffffffffffffffffffffffffffffffff1681526020019081526020015f2082908060018154018082558091505060019003905f5260205f20015f9091909190915055813373ffffffffffffffffffffffffffffffffffffffff167f2051c8311aa477738e93fc1fe8aaad1443b3c528eb3f3201a62b93ebbbaf656e878760405161334d929190615224565b60405180910390a3819250505092915050565b600e818154811061336f575f80fd5b905f5260205f2090600402015f91509050805f015f9054906101000a900473ffffffffffffffffffffffffffffffffffffffff16908060010180546133b3906146f9565b80601f01602080910402602001604051908101604052809291908181526020018280546133df906146f9565b801561342a5780601f106134015761010080835404028352916020019161342a565b820191905f5260205f20905b81548152906001019060200180831161340d57829003601f168201915b5050505050908060020154905083565b5f828290501161347f576040517f08c379a00000000000000000000000000000000000000000000000000000000081526004016134769061570f565b60405180910390fd5b818160065f3373ffffffffffffffffffffffffffffffffffffffff1673ffffffffffffffffffffffffffffffffffffffff1681526020019081526020015f2060030191826134ce929190615157565b503373ffffffffffffffffffffffffffffffffffffffff167f1af4cc3acb57f067d1d582e3932be6692a4c9a31d8b3a8567dfc1c340a02d5348383604051613517929190615224565b60405180910390a25050565b6060600e80549050821061356c576040517f08c379a000000000000000000000000000000000000000000000000000000000815260040161356390614a78565b60405180910390fd5b5f600e8381548110613581576135806148c9565b5b905f5260205f20906004020190505f5f90505b816003018054905081101561369a578160030181815481106135b9576135b86148c9565b5b905f5260205f2090600302016001015f9054906101000a900460ff1661368d578160030181815481106135ef576135ee6148c9565b5b905f5260205f2090600302015f018054613608906146f9565b80601f0160208091040260200160405190810160405280929190818152602001828054613634906146f9565b801561367f5780601f106136565761010080835404028352916020019161367f565b820191905f5260205f20905b81548152906001019060200180831161366257829003601f168201915b5050505050925050506136ae565b8080600101915050613594565b5060405180602001604052805f8152509150505b919050565b5f33905090565b6136c783838360016138ce565b505050565b5f6136d78484612eeb565b90507fffffffffffffffffffffffffffffffffffffffffffffffffffffffffffffffff811015613759578181101561374a578281836040517ffb8f41b20000000000000000000000000000000000000000000000000000000081526004016137419392919061572d565b60405180910390fd5b61375884848484035f6138ce565b5b50505050565b5f73ffffffffffffffffffffffffffffffffffffffff168373ffffffffffffffffffffffffffffffffffffffff16036137cf575f6040517f96c6fd1e0000000000000000000000000000000000000000000000000000000081526004016137c69190615762565b60405180910390fd5b5f73ffffffffffffffffffffffffffffffffffffffff168273ffffffffffffffffffffffffffffffffffffffff160361383f575f6040517fec442f050000000000000000000000000000000000000000000000000000000081526004016138369190615762565b60405180910390fd5b61384a838383613a9d565b505050565b5f73ffffffffffffffffffffffffffffffffffffffff168273ffffffffffffffffffffffffffffffffffffffff16036138bf575f6040517fec442f050000000000000000000000000000000000000000000000000000000081526004016138b69190615762565b60405180910390fd5b6138ca5f8383613a9d565b5050565b5f73ffffffffffffffffffffffffffffffffffffffff168473ffffffffffffffffffffffffffffffffffffffff160361393e575f6040517fe602df050000000000000000000000000000000000000000000000000000000081526004016139359190615762565b60405180910390fd5b5f73ffffffffffffffffffffffffffffffffffffffff168373ffffffffffffffffffffffffffffffffffffffff16036139ae575f6040517f94280d620000000000000000000000000000000000000000000000000000000081526004016139a59190615762565b60405180910390fd5b8160015f8673ffffffffffffffffffffffffffffffffffffffff1673ffffffffffffffffffffffffffffffffffffffff1681526020019081526020015f205f8573ffffffffffffffffffffffffffffffffffffffff1673ffffffffffffffffffffffffffffffffffffffff1681526020019081526020015f20819055508015613a97578273ffffffffffffffffffffffffffffffffffffffff168473ffffffffffffffffffffffffffffffffffffffff167f8c5be1e5ebec7d5bd14f71427d1e84f3dd0314c0f7b2291e5b200ac8c7c3b92584604051613a8e9190614196565b60405180910390a35b50505050565b5f73ffffffffffffffffffffffffffffffffffffffff168373ffffffffffffffffffffffffffffffffffffffff1603613aed578060025f828254613ae19190614ccb565b92505081905550613bbb565b5f5f5f8573ffffffffffffffffffffffffffffffffffffffff1673ffffffffffffffffffffffffffffffffffffffff1681526020019081526020015f2054905081811015613b76578381836040517fe450d38c000000000000000000000000000000000000000000000000000000008152600401613b6d9392919061572d565b60405180910390fd5b8181035f5f8673ffffffffffffffffffffffffffffffffffffffff1673ffffffffffffffffffffffffffffffffffffffff1681526020019081526020015f2081905550505b5f73ffffffffffffffffffffffffffffffffffffffff168273ffffffffffffffffffffffffffffffffffffffff1603613c02578060025f8282540392505081905550613c4c565b805f5f8473ffffffffffffffffffffffffffffffffffffffff1673ffffffffffffffffffffffffffffffffffffffff1681526020019081526020015f205f82825401925050819055505b8173ffffffffffffffffffffffffffffffffffffffff168373ffffffffffffffffffffffffffffffffffffffff167fddf252ad1be2c89b69c2b068fc378daa952ba7f163c4a11628f55a4df523b3ef83604051613ca99190614196565b60405180910390a3505050565b6040518061010001604052805f73ffffffffffffffffffffffffffffffffffffffff1681526020016060815260200160608152602001606081526020015f81526020015f81526020015f81526020015f151581525090565b5f5ffd5b5f5ffd5b5f819050919050565b613d2881613d16565b8114613d32575f5ffd5b50565b5f81359050613d4381613d1f565b92915050565b5f60208284031215613d5e57613d5d613d0e565b5b5f613d6b84828501613d35565b91505092915050565b613d7d81613d16565b82525050565b5f73ffffffffffffffffffffffffffffffffffffffff82169050919050565b5f613dac82613d83565b9050919050565b613dbc81613da2565b82525050565b5f81519050919050565b5f82825260208201905092915050565b8281835e5f83830152505050565b5f601f19601f8301169050919050565b5f613e0482613dc2565b613e0e8185613dcc565b9350613e1e818560208601613ddc565b613e2781613dea565b840191505092915050565b5f8115159050919050565b613e4681613e32565b82525050565b5f60c082019050613e5f5f830189613d74565b613e6c6020830188613db3565b8181036040830152613e7e8187613dfa565b9050613e8d6060830186613d74565b613e9a6080830185613d74565b613ea760a0830184613e3d565b979650505050505050565b5f6020820190508181035f830152613eca8184613dfa565b905092915050565b613edb81613da2565b8114613ee5575f5ffd5b50565b5f81359050613ef681613ed2565b92915050565b5f5f60408385031215613f1257613f11613d0e565b5b5f613f1f85828601613ee8565b9250506020613f3085828601613d35565b9150509250929050565b5f602082019050613f4d5f830184613e3d565b92915050565b613f5c81613da2565b82525050565b5f82825260208201905092915050565b5f613f7c82613dc2565b613f868185613f62565b9350613f96818560208601613ddc565b613f9f81613dea565b840191505092915050565b613fb381613d16565b82525050565b613fc281613e32565b82525050565b5f61010083015f830151613fde5f860182613f53565b5060208301518482036020860152613ff68282613f72565b915050604083015184820360408601526140108282613f72565b9150506060830151848203606086015261402a8282613f72565b915050608083015161403f6080860182613faa565b5060a083015161405260a0860182613faa565b5060c083015161406560c0860182613faa565b5060e083015161407860e0860182613fb9565b508091505092915050565b5f6020820190508181035f83015261409b8184613fc8565b905092915050565b5f602082840312156140b8576140b7613d0e565b5b5f6140c584828501613ee8565b91505092915050565b5f81519050919050565b5f82825260208201905092915050565b5f819050602082019050919050565b5f6141028383613faa565b60208301905092915050565b5f602082019050919050565b5f614124826140ce565b61412e81856140d8565b9350614139836140e8565b805f5b8381101561416957815161415088826140f7565b975061415b8361410e565b92505060018101905061413c565b5085935050505092915050565b5f6020820190508181035f83015261418e818461411a565b905092915050565b5f6020820190506141a95f830184613d74565b92915050565b5f5f5f606084860312156141c6576141c5613d0e565b5b5f6141d386828701613ee8565b93505060206141e486828701613ee8565b92505060406141f586828701613d35565b9150509250925092565b5f60ff82169050919050565b614214816141ff565b82525050565b5f60208201905061422d5f83018461420b565b92915050565b5f5f6040838503121561424957614248613d0e565b5b5f61425685828601613d35565b925050602061426785828601613d35565b9150509250929050565b5f6060820190506142845f830186613db3565b6142916020830185613d74565b81810360408301526142a38184613dfa565b9050949350505050565b5f5ffd5b5f5ffd5b5f5ffd5b5f5f83601f8401126142ce576142cd6142ad565b5b8235905067ffffffffffffffff8111156142eb576142ea6142b1565b5b602083019150836001820283011115614307576143066142b5565b5b9250929050565b5f5f5f6040848603121561432557614324613d0e565b5b5f61433286828701613d35565b935050602084013567ffffffffffffffff81111561435357614352613d12565b5b61435f868287016142b9565b92509250509250925092565b5f5f6040838503121561438157614380613d0e565b5b5f61438e85828601613d35565b925050602061439f85828601613ee8565b9150509250929050565b5f5f602083850312156143bf576143be613d0e565b5b5f83013567ffffffffffffffff8111156143dc576143db613d12565b5b6143e8858286016142b9565b92509250509250929050565b5f610100820190506144085f83018b613db3565b818103602083015261441a818a613dfa565b9050818103604083015261442e8189613dfa565b905081810360608301526144428188613dfa565b90506144516080830187613d74565b61445e60a0830186613d74565b61446b60c0830185613d74565b61447860e0830184613d74565b9998505050505050505050565b5f5f5f5f5f5f5f6080888a0312156144a05761449f613d0e565b5b5f88013567ffffffffffffffff8111156144bd576144bc613d12565b5b6144c98a828b016142b9565b9750975050602088013567ffffffffffffffff8111156144ec576144eb613d12565b5b6144f88a828b016142b9565b9550955050604088013567ffffffffffffffff81111561451b5761451a613d12565b5b6145278a828b016142b9565b9350935050606061453a8a828b01613d35565b91505092959891949750929550565b5f60408201905061455c5f830185613d74565b818103602083015261456e8184613dfa565b90509392505050565b5f5f6040838503121561458d5761458c613d0e565b5b5f61459a85828601613ee8565b92505060206145ab85828601613ee8565b9150509250929050565b5f81519050919050565b5f82825260208201905092915050565b5f819050602082019050919050565b5f6145e98383613f72565b905092915050565b5f602082019050919050565b5f614607826145b5565b61461181856145bf565b935083602082028501614623856145cf565b805f5b8581101561465e578484038952815161463f85826145de565b945061464a836145f1565b925060208a01995050600181019050614626565b50829750879550505050505092915050565b5f6020820190508181035f83015261468881846145fd565b905092915050565b5f6060820190506146a35f830186613db3565b81810360208301526146b58185613dfa565b90506146c46040830184613d74565b949350505050565b7f4e487b71000000000000000000000000000000000000000000000000000000005f52602260045260245ffd5b5f600282049050600182168061471057607f821691505b602082108103614723576147226146cc565b5b50919050565b7f50726f706f73616c20646f6573206e6f742065786973740000000000000000005f82015250565b5f61475d601783613dcc565b915061476882614729565b602082019050919050565b5f6020820190508181035f83015261478a81614751565b9050919050565b7f566f74696e67206973207374696c6c206f6e676f696e670000000000000000005f82015250565b5f6147c5601783613dcc565b91506147d082614791565b602082019050919050565b5f6020820190508181035f8301526147f2816147b9565b9050919050565b7f50726f706f73616c20616c7265616479206578656375746564000000000000005f82015250565b5f61482d601983613dcc565b9150614838826147f9565b602082019050919050565b5f6020820190508181035f83015261485a81614821565b9050919050565b7f626c6f67206e6f742065786973740000000000000000000000000000000000005f82015250565b5f614895600e83613dcc565b91506148a082614861565b602082019050919050565b5f6020820190508181035f8301526148c281614889565b9050919050565b7f4e487b71000000000000000000000000000000000000000000000000000000005f52603260045260245ffd5b7f426c6f672069732068696464656e20627920636f6d6d756e69747900000000005f82015250565b5f61492a601b83613dcc565b9150614935826148f6565b602082019050919050565b5f6020820190508181035f8301526149578161491e565b9050919050565b7f63616e2774206275792073656c660000000000000000000000000000000000005f82015250565b5f614992600e83613dcc565b915061499d8261495e565b602082019050919050565b5f6020820190508181035f8301526149bf81614986565b9050919050565b7f616c7265616479207075726368617365640000000000000000000000000000005f82015250565b5f6149fa601183613dcc565b9150614a05826149c6565b602082019050919050565b5f6020820190508181035f830152614a27816149ee565b9050919050565b7f416c62756d20646f6573206e6f742065786973740000000000000000000000005f82015250565b5f614a62601483613dcc565b9150614a6d82614a2e565b602082019050919050565b5f6020820190508181035f830152614a8f81614a56565b9050919050565b7f4f6e6c79206f776e65722063616e2064656c65746520706963747572657300005f82015250565b5f614aca601e83613dcc565b9150614ad582614a96565b602082019050919050565b5f6020820190508181035f830152614af781614abe565b9050919050565b7f5069637475726520646f6573206e6f74206578697374000000000000000000005f82015250565b5f614b32601683613dcc565b9150614b3d82614afe565b602082019050919050565b5f6020820190508181035f830152614b5f81614b26565b9050919050565b7f5069637475726520616c72656164792064656c657465640000000000000000005f82015250565b5f614b9a601783613dcc565b9150614ba582614b66565b602082019050919050565b5f6020820190508181035f830152614bc781614b8e565b9050919050565b7f426c6f6720646f6573206e6f74206578697374000000000000000000000000005f82015250565b5f614c02601383613dcc565b9150614c0d82614bce565b602082019050919050565b5f6020820190508181035f830152614c2f81614bf6565b9050919050565b7f436f6d6d656e7420646f6573206e6f74206578697374000000000000000000005f82015250565b5f614c6a601683613dcc565b9150614c7582614c36565b602082019050919050565b5f6020820190508181035f830152614c9781614c5e565b9050919050565b7f4e487b71000000000000000000000000000000000000000000000000000000005f52601160045260245ffd5b5f614cd582613d16565b9150614ce083613d16565b9250828201905080821115614cf857614cf7614c9e565b5b92915050565b7f323420686f7572730000000000000000000000000000000000000000000000005f82015250565b5f614d32600883613dcc565b9150614d3d82614cfe565b602082019050919050565b5f6020820190508181035f830152614d5f81614d26565b9050919050565b7f496d616765204349442063616e6e6f7420626520656d707479000000000000005f82015250565b5f614d9a601983613dcc565b9150614da582614d66565b602082019050919050565b5f6020820190508181035f830152614dc781614d8e565b9050919050565b7f4f6e6c79206f776e65722063616e2061646420706963747572657300000000005f82015250565b5f614e02601b83613dcc565b9150614e0d82614dce565b602082019050919050565b5f6020820190508181035f830152614e2f81614df6565b9050919050565b7f4e487b71000000000000000000000000000000000000000000000000000000005f52604160045260245ffd5b5f819050815f5260205f209050919050565b5f6020601f8301049050919050565b5f82821b905092915050565b5f60088302614ebf7fffffffffffffffffffffffffffffffffffffffffffffffffffffffffffffffff82614e84565b614ec98683614e84565b95508019841693508086168417925050509392505050565b5f819050919050565b5f614f04614eff614efa84613d16565b614ee1565b613d16565b9050919050565b5f819050919050565b614f1d83614eea565b614f31614f2982614f0b565b848454614e90565b825550505050565b5f5f905090565b614f48614f39565b614f53818484614f14565b505050565b5f5b82811015614f7957614f6e5f828401614f40565b600181019050614f5a565b505050565b601f821115614fcc5782821115614fcb57614f9881614e63565b614fa183614e75565b614faa85614e75565b6020861015614fb7575f90505b808301614fc682840382614f58565b505050505b5b505050565b5f82821c905092915050565b5f614fec5f1984600802614fd1565b1980831691505092915050565b5f6150048383614fdd565b9150826002028217905092915050565b61501d82613dc2565b67ffffffffffffffff81111561503657615035614e36565b5b61504082546146f9565b61504b828285614f7e565b5f60209050601f83116001811461507c575f841561506a578287015190505b6150748582614ff9565b8655506150db565b601f19841661508a86614e63565b5f5b828110156150b15784890151825560018201915060208501945060208101905061508c565b868310156150ce57848901516150ca601f891682614fdd565b8355505b6001600288020188555050505b505050505050565b828183375f83830152505050565b5f6150fc8385613dcc565b93506151098385846150e3565b61511283613dea565b840190509392505050565b5f6040820190506151305f830186613d74565b81810360208301526151438184866150f1565b9050949350505050565b5f82905092915050565b615161838361514d565b67ffffffffffffffff81111561517a57615179614e36565b5b61518482546146f9565b61518f828285614f7e565b5f601f8311600181146151bc575f84156151aa578287013590505b6151b48582614ff9565b86555061521b565b601f1984166151ca86614e63565b5f5b828110156151f1578489013582556001820191506020850194506020810190506151cc565b8683101561520e578489013561520a601f891682614fdd565b8355505b6001600288020188555050505b50505050505050565b5f6020820190508181035f83015261523d8184866150f1565b90509392505050565b7f6e616d6520656d707479000000000000000000000000000000000000000000005f82015250565b5f61527a600a83613dcc565b915061528582615246565b602082019050919050565b5f6020820190508181035f8301526152a78161526e565b9050919050565b7f6970667343494420656d707479000000000000000000000000000000000000005f82015250565b5f6152e2600d83613dcc565b91506152ed826152ae565b602082019050919050565b5f6020820190508181035f83015261530f816152d6565b9050919050565b5f6040820190508181035f83015261532f8186886150f1565b905081810360208301526153448184866150f1565b905095945050505050565b7f426c6f6720697320616c72656164792068696464656e000000000000000000005f82015250565b5f615383601683613dcc565b915061538e8261534f565b602082019050919050565b5f6020820190508181035f8301526153b081615377565b9050919050565b5f6153c182613d16565b91507fffffffffffffffffffffffffffffffffffffffffffffffffffffffffffffffff82036153f3576153f2614c9e565b5b600182019050919050565b5f6040820190506154115f830186613db3565b81810360208301526154248184866150f1565b9050949350505050565b7f436f6d6d656e7420656d707479000000000000000000000000000000000000005f82015250565b5f615462600d83613dcc565b915061546d8261542e565b602082019050919050565b5f6020820190508181035f83015261548f81615456565b9050919050565b7f4f6e6c7920627579657273206f72206f776e65722063616e20636f6d6d656e745f82015250565b5f6154ca602083613dcc565b91506154d582615496565b602082019050919050565b5f6020820190508181035f8301526154f7816154be565b9050919050565b7f566f74696e6720706572696f642068617320656e6465640000000000000000005f82015250565b5f615532601783613dcc565b915061553d826154fe565b602082019050919050565b5f6020820190508181035f83015261555f81615526565b9050919050565b7f596f75206861766520616c726561647920766f746564000000000000000000005f82015250565b5f61559a601683613dcc565b91506155a582615566565b602082019050919050565b5f6020820190508181035f8301526155c78161558e565b9050919050565b7f596f75206e65656420424c4720746f6b656e7320746f20766f746500000000005f82015250565b5f615602601b83613dcc565b915061560d826155ce565b602082019050919050565b5f6020820190508181035f83015261562f816155f6565b9050919050565b5f6040820190506156495f830185613d74565b6156566020830184613db3565b9392505050565b7f416c62756d206e616d652063616e6e6f7420626520656d7074790000000000005f82015250565b5f615691601a83613dcc565b915061569c8261565d565b602082019050919050565b5f6020820190508181035f8301526156be81615685565b9050919050565b7f557365726e616d652063616e6e6f7420626520656d70747900000000000000005f82015250565b5f6156f9601883613dcc565b9150615704826156c5565b602082019050919050565b5f6020820190508181035f830152615726816156ed565b9050919050565b5f6060820190506157405f830186613db3565b61574d6020830185613d74565b61575a6040830184613d74565b949350505050565b5f6020820190506157755f830184613db3565b9291505056fea2646970667358221220cb14a1b7d0a76fc6263c04916447c3b5f7f5ed537b563b7d8825dae48d24c0a064736f6c63430008210033",
  "linkReferences": {},
  "deployedLinkReferences": {},
  "immutableReferences": {},
  "inputSourceName": "project/contracts/BlogSystem.sol",
  "buildInfoId": "solc-0_8_33-b7e5309efd8578e3318d3e247a3a479323d2be63"
}