{
  "_format": "hh3-artifact-1",
  "contractName": "BlogSystem",
  "sourceName": "contracts/BlogSystem.sol",
  "abi": [
    {
      "inputs": [
        {
          "internalType": "address",
          "name": "spender",
          "type": "address"
        },
        {
          "internalType": "uint256",
          "name": "allowance",
          "type": "uint256"
        },
        {
          "internalType": "uint256",
          "name": "needed",
          "type": "uint256"
        }
      ],
      "name": "ERC20InsufficientAllowance",
      "type": "error"
    },
    {
      "inputs": [
        {
          "internalType": "address",
          "name": "sender",
          "type": "address"
        },
        {
          "internalType": "uint256",
          "name": "balance",
          "type": "uint256"
        },
        {
          "internalType": "uint256",
          "name": "needed",
          "type": "uint256"
        }
      ],
      "name": "ERC20InsufficientBalance",
      "type": "error"
    },
    {
      "inputs": [
        {
          "internalType": "address",
          "name": "approver",
          "type": "address"
        }
      ],
      "name": "ERC20InvalidApprover",
      "type": "error"
    },
    {
      "inputs": [
        {
          "internalType": "address",
          "name": "receiver",
          "type": "address"
        }
      ],
      "name": "ERC20InvalidReceiver",
      "type": "error"
    },
    {
      "inputs": [
        {
          "internalType": "address",
          "name": "sender",
          "type": "address"
        }
      ],
      "name": "ERC20InvalidSender",
      "type": "error"
    },
    {
      "inputs": [
        {
          "internalType": "address",
          "name": "spender",
          "type": "address"
        }
      ],
      "name": "ERC20InvalidSpender",
      "type": "error"
    },
    {
      "anonymous": false,
      "inputs": [
        {
          "indexed": true,
          "internalType": "address",
          "name": "owner",
          "type": "address"
        },
        {
          "indexed": true,
          "internalType": "uint256",
          "name": "albumId",
          "type": "uint256"
        },
        {
          "indexed": false,
          "internalType": "string",
          "name": "name",
          "type": "string"
        }
      ],
      "name": "AlbumCreated",
      "type": "event"
    },
    {
      "anonymous": false,
      "inputs": [
        {
          "indexed": true,
          "internalType": "uint256",
          "name": "albumId",
          "type": "uint256"
        }
      ],
      "name": "AlbumDeleted",
      "type": "event"
    },
    {
      "anonymous": false,
      "inputs": [
        {
          "indexed": true,
          "internalType": "uint256",
          "name": "albumId",
          "type": "uint256"
        },
        {
          "indexed": false,
          "internalType": "string",
          "name": "newName",
          "type": "string"
        }
      ],
      "name": "AlbumUpdated",
      "type": "event"
    },
    {
      "anonymous": false,
      "inputs": [
        {
          "indexed": true,
          "internalType": "address",
          "name": "owner",
          "type": "address"
        },
        {
          "indexed": true,
          "internalType": "address",
          "name": "spender",
          "type": "address"
        },
        {
          "indexed": false,
          "internalType": "uint256",
          "name": "value",
          "type": "uint256"
        }
      ],
      "name": "Approval",
      "type": "event"
    },
    {
      "anonymous": false,
      "inputs": [
        {
          "indexed": true,
          "internalType": "address",
          "name": "user",
          "type": "address"
        },
        {
          "indexed": false,
          "internalType": "string",
          "name": "avatarCID",
          "type": "string"
        }
      ],
      "name": "AvatarUpdated",
      "type": "event"
    },
    {
      "anonymous": false,
      "inputs": [
        {
          "indexed": true,
          "internalType": "uint256",
          "name": "blogId",
          "type": "uint256"
        },
        {
          "indexed": true,
          "internalType": "address",
          "name": "owner",
          "type": "address"
        }
      ],
      "name": "BlogDeleted",
      "type": "event"
    },
    {
      "anonymous": false,
      "inputs": [
        {
          "indexed": true,
          "internalType": "address",
          "name": "author",
          "type": "address"
        },
        {
          "indexed": true,
          "internalType": "uint256",
          "name": "blogId",
          "type": "uint256"
        },
        {
          "indexed": false,
          "internalType": "string",
          "name": "ipfsCID",
          "type": "string"
        },
        {
          "indexed": false,
          "internalType": "string",
          "name": "name",
          "type": "string"
        }
      ],
      "name": "BlogPublished",
      "type": "event"
    },
    {
      "anonymous": false,
      "inputs": [
        {
          "indexed": true,
          "internalType": "address",
          "name": "buyer",
          "type": "address"
        },
        {
          "indexed": true,
          "internalType": "uint256",
          "name": "blogId",
          "type": "uint256"
        },
        {
          "indexed": false,
          "internalType": "uint256",
          "name": "price",
          "type": "uint256"
        }
      ],
      "name": "BlogPurchased",
      "type": "event"
    },
    {
      "anonymous": false,
      "inputs": [
        {
          "indexed": true,
          "internalType": "uint256",
          "name": "blogId",
          "type": "uint256"
        },
        {
          "indexed": false,
          "internalType": "string",
          "name": "newName",
          "type": "string"
        },
        {
          "indexed": false,
          "internalType": "string",
          "name": "newIntro",
          "type": "string"
        },
        {
          "indexed": false,
          "internalType": "string",
          "name": "newIpfsCID",
          "type": "string"
        }
      ],
      "name": "BlogUpdated",
      "type": "event"
    },
    {
      "anonymous": false,
      "inputs": [
        {
          "indexed": true,
          "internalType": "uint256",
          "name": "blogId",
          "type": "uint256"
        },
        {
          "indexed": false,
          "internalType": "uint256",
          "name": "newViewCount",
          "type": "uint256"
        },
        {
          "indexed": false,
          "internalType": "address",
          "name": "viewer",
          "type": "address"
        }
      ],
      "name": "BlogViewed",
      "type": "event"
    },
    {
      "anonymous": false,
      "inputs": [
        {
          "indexed": true,
          "internalType": "uint256",
          "name": "blogId",
          "type": "uint256"
        },
        {
          "indexed": true,
          "internalType": "uint256",
          "name": "commentId",
          "type": "uint256"
        },
        {
          "indexed": true,
          "internalType": "address",
          "name": "buyer",
          "type": "address"
        }
      ],
      "name": "CommentAdded",
      "type": "event"
    },
    {
      "anonymous": false,
      "inputs": [
        {
          "indexed": true,
          "internalType": "address",
          "name": "user",
          "type": "address"
        },
        {
          "indexed": false,
          "internalType": "uint256",
          "name": "amount",
          "type": "uint256"
        }
      ],
      "name": "FaucetClaimed",
      "type": "event"
    },
    {
      "anonymous": false,
      "inputs": [
        {
          "indexed": true,
          "internalType": "uint256",
          "name": "albumId",
          "type": "uint256"
        },
        {
          "indexed": false,
          "internalType": "uint256",
          "name": "pictureIndex",
          "type": "uint256"
        },
        {
          "indexed": false,
          "internalType": "string",
          "name": "ipfsCID",
          "type": "string"
        }
      ],
      "name": "PictureAdded",
      "type": "event"
    },
    {
      "anonymous": false,
      "inputs": [
        {
          "indexed": true,
          "internalType": "uint256",
          "name": "albumId",
          "type": "uint256"
        },
        {
          "indexed": false,
          "internalType": "uint256",
          "name": "pictureIndex",
          "type": "uint256"
        }
      ],
      "name": "PictureDeleted",
      "type": "event"
    },
    {
      "anonymous": false,
      "inputs": [
        {
          "indexed": true,
          "internalType": "uint256",
          "name": "proposalId",
          "type": "uint256"
        },
        {
          "indexed": true,
          "internalType": "uint256",
          "name": "blogId",
          "type": "uint256"
        },
        {
          "indexed": false,
          "internalType": "address",
          "name": "proposer",
          "type": "address"
        },
        {
          "indexed": false,
          "internalType": "string",
          "name": "reason",
          "type": "string"
        }
      ],
      "name": "ProposalCreated",
      "type": "event"
    },
    {
      "anonymous": false,
      "inputs": [
        {
          "indexed": true,
          "internalType": "uint256",
          "name": "proposalId",
          "type": "uint256"
        },
        {
          "indexed": true,
          "internalType": "uint256",
          "name": "blogId",
          "type": "uint256"
        },
        {
          "indexed": false,
          "internalType": "bool",
          "name": "isHidden",
          "type": "bool"
        }
      ],
      "name": "ProposalExecuted",
      "type": "event"
    },
    {
      "anonymous": false,
      "inputs": [
        {
          "indexed": true,
          "internalType": "address",
          "name": "from",
          "type": "address"
        },
        {
          "indexed": true,
          "internalType": "address",
          "name": "to",
          "type": "address"
        },
        {
          "indexed": false,
          "internalType": "uint256",
          "name": "value",
          "type": "uint256"
        }
      ],
      "name": "Transfer",
      "type": "event"
    },
    {
      "anonymous": false,
      "inputs": [
        {
          "indexed": true,
          "internalType": "address",
          "name": "user",
          "type": "address"
        },
        {
          "indexed": false,
          "internalType": "string",
          "name": "newUsername",
          "type": "string"
        }
      ],
      "name": "UsernameUpdated",
      "type": "event"
    },
    {
      "anonymous": false,
      "inputs": [
        {
          "indexed": true,
          "internalType": "uint256",
          "name": "proposalId",
          "type": "uint256"
        },
        {
          "indexed": true,
          "internalType": "address",
          "name": "voter",
          "type": "address"
        },
        {
          "indexed": false,
          "internalType": "uint256",
          "name": "weight",
          "type": "uint256"
        }
      ],
      "name": "Voted",
      "type": "event"
    },
    {
      "inputs": [],
      "name": "FAUCET_AMOUNT",
      "outputs": [
        {
          "internalType": "uint256",
          "name": "",
          "type": "uint256"
        }
      ],
      "stateMutability": "view",
      "type": "function"
    },
    {
      "inputs": [],
      "name": "FAUCET_COOLDOWN",
      "outputs": [
        {
          "internalType": "uint256",
          "name": "",
          "type": "uint256"
        }
      ],
      "stateMutability": "view",
      "type": "function"
    },
    {
      "inputs": [],
      "name": "QUORUM_VOTES",
      "outputs": [
        {
          "internalType": "uint256",
          "name": "",
          "type": "uint256"
        }
      ],
      "stateMutability": "view",
      "type": "function"
    },
    {
      "inputs": [],
      "name": "VOTING_DURATION",
      "outputs": [
        {
          "internalType": "uint256",
          "name": "",
          "type": "uint256"
        }
      ],
      "stateMutability": "view",
      "type": "function"
    },
    {
      "inputs": [
        {
          "internalType": "uint256",
          "name": "blogId",
          "type": "uint256"
        },
        {
          "internalType": "string",
          "name": "content",
          "type": "string"
        }
      ],
      "name": "addComment",
      "outputs": [
        {
          "internalType": "uint256",
          "name": "",
          "type": "uint256"
        }
      ],
      "stateMutability": "nonpayable",
      "type": "function"
    },
    {
      "inputs": [
        {
          "internalType": "uint256",
          "name": "albumId",
          "type": "uint256"
        },
        {
          "internalType": "string",
          "name": "ipfsCID",
          "type": "string"
        }
      ],
      "name": "addPicture",
      "outputs": [],
      "stateMutability": "nonpayable",
      "type": "function"
    },
    {
      "inputs": [
        {
          "internalType": "uint256",
          "name": "",
          "type": "uint256"
        }
      ],
      "name": "albums",
      "outputs": [
        {
          "internalType": "address",
          "name": "owner",
          "type": "address"
        },
        {
          "internalType": "string",
          "name": "name",
          "type": "string"
        },
        {
          "internalType": "uint256",
          "name": "createdAt",
          "type": "uint256"
        },
        {
          "internalType": "bool",
          "name": "isDeleted",
          "type": "bool"
        }
      ],
      "stateMutability": "view",
      "type": "function"
    },
    {
      "inputs": [
        {
          "internalType": "address",
          "name": "owner",
          "type": "address"
        },
        {
          "internalType": "address",
          "name": "spender",
          "type": "address"
        }
      ],
      "name": "allowance",
      "outputs": [
        {
          "internalType": "uint256",
          "name": "",
          "type": "uint256"
        }
      ],
      "stateMutability": "view",
      "type": "function"
    },
    {
      "inputs": [
        {
          "internalType": "address",
          "name": "spender",
          "type": "address"
        },
        {
          "internalType": "uint256",
          "name": "value",
          "type": "uint256"
        }
      ],
      "name": "approve",
      "outputs": [
        {
          "internalType": "bool",
          "name": "",
          "type": "bool"
        }
      ],
      "stateMutability": "nonpayable",
      "type": "function"
    },
    {
      "inputs": [
        {
          "internalType": "address",
          "name": "account",
          "type": "address"
        }
      ],
      "name": "balanceOf",
      "outputs": [
        {
          "internalType": "uint256",
          "name": "",
          "type": "uint256"
        }
      ],
      "stateMutability": "view",
      "type": "function"
    },
    {
      "inputs": [
        {
          "internalType": "uint256",
          "name": "",
          "type": "uint256"
        }
      ],
      "name": "blogs",
      "outputs": [
        {
          "internalType": "address",
          "name": "owner",
          "type": "address"
        },
        {
          "internalType": "string",
          "name": "name",
          "type": "string"
        },
        {
          "internalType": "string",
          "name": "intro",
          "type": "string"
        },
        {
          "internalType": "string",
          "name": "ipfsCID",
          "type": "string"
        },
        {
          "internalType": "uint256",
          "name": "price",
          "type": "uint256"
        },
        {
          "internalType": "uint256",
          "name": "viewCount",
          "type": "uint256"
        },
        {
          "internalType": "uint256",
          "name": "publishDate",
          "type": "uint256"
        },
        {
          "internalType": "uint256",
          "name": "commentCount",
          "type": "uint256"
        }
      ],
      "stateMutability": "view",
      "type": "function"
    },
    {
      "inputs": [],
      "name": "claimTokens",
      "outputs": [],
      "stateMutability": "nonpayable",
      "type": "function"
    },
    {
      "inputs": [
        {
          "internalType": "string",
          "name": "name",
          "type": "string"
        }
      ],
      "name": "createAlbum",
      "outputs": [
        {
          "internalType": "uint256",
          "name": "",
          "type": "uint256"
        }
      ],
      "stateMutability": "nonpayable",
      "type": "function"
    },
    {
      "inputs": [
        {
          "internalType": "uint256",
          "name": "blogId",
          "type": "uint256"
        },
        {
          "internalType": "string",
          "name": "reason",
          "type": "string"
        }
      ],
      "name": "createHideProposal",
      "outputs": [],
      "stateMutability": "nonpayable",
      "type": "function"
    },
    {
      "inputs": [],
      "name": "decimals",
      "outputs": [
        {
          "internalType": "uint8",
          "name": "",
          "type": "uint8"
        }
      ],
      "stateMutability": "view",
      "type": "function"
    },
    {
      "inputs": [
        {
          "internalType": "uint256",
          "name": "albumId",
          "type": "uint256"
        }
      ],
      "name": "deleteAlbum",
      "outputs": [],
      "stateMutability": "nonpayable",
      "type": "function"
    },
    {
      "inputs": [
        {
          "internalType": "uint256",
          "name": "blogId",
          "type": "uint256"
        }
      ],
      "name": "deleteBlog",
      "outputs": [],
      "stateMutability": "nonpayable",
      "type": "function"
    },
    {
      "inputs": [
        {
          "internalType": "uint256",
          "name": "albumId",
          "type": "uint256"
        },
        {
          "internalType": "uint256",
          "name": "pictureIndex",
          "type": "uint256"
        }
      ],
      "name": "deletePicture",
      "outputs": [],
      "stateMutability": "nonpayable",
      "type": "function"
    },
    {
      "inputs": [
        {
          "internalType": "uint256",
          "name": "proposalId",
          "type": "uint256"
        }
      ],
      "name": "executeProposal",
      "outputs": [],
      "stateMutability": "nonpayable",
      "type": "function"
    },
    {
      "inputs": [
        {
          "internalType": "uint256",
          "name": "albumId",
          "type": "uint256"
        }
      ],
      "name": "getAlbumCover",
      "outputs": [
        {
          "internalType": "string",
          "name": "",
          "type": "string"
        }
      ],
      "stateMutability": "view",
      "type": "function"
    },
    {
      "inputs": [
        {
          "internalType": "uint256",
          "name": "albumId",
          "type": "uint256"
        }
      ],
      "name": "getAlbumPictures",
      "outputs": [
        {
          "components": [
            {
              "internalType": "string",
              "name": "ipfsCID",
              "type": "string"
            },
            {
              "internalType": "bool",
              "name": "isDeleted",
              "type": "bool"
            },
            {
              "internalType": "uint256",
              "name": "addedAt",
              "type": "uint256"
            }
          ],
          "internalType": "struct BlogStorage.Picture[]",
          "name": "",
          "type": "tuple[]"
        }
      ],
      "stateMutability": "view",
      "type": "function"
    },
    {
      "inputs": [
        {
          "internalType": "address",
          "name": "user",
          "type": "address"
        }
      ],
      "name": "getAvatar",
      "outputs": [
        {
          "internalType": "string",
          "name": "",
          "type": "string"
        }
      ],
      "stateMutability": "view",
      "type": "function"
    },
    {
      "inputs": [],
      "name": "getBlogCount",
      "outputs": [
        {
          "internalType": "uint256",
          "name": "",
          "type": "uint256"
        }
      ],
      "stateMutability": "view",
      "type": "function"
    },
    {
      "inputs": [
        {
          "internalType": "uint256",
          "name": "blogId",
          "type": "uint256"
        }
      ],
      "name": "getBlogDetail",
      "outputs": [
        {
          "components": [
            {
              "internalType": "address",
              "name": "owner",
              "type": "address"
            },
            {
              "internalType": "string",
              "name": "name",
              "type": "string"
            },
            {
              "internalType": "string",
              "name": "intro",
              "type": "string"
            },
            {
              "internalType": "string",
              "name": "ipfsCID",
              "type": "string"
            },
            {
              "internalType": "uint256",
              "name": "price",
              "type": "uint256"
            },
            {
              "internalType": "uint256",
              "name": "viewCount",
              "type": "uint256"
            },
            {
              "internalType": "uint256",
              "name": "publishDate",
              "type": "uint256"
            },
            {
              "internalType": "bool",
              "name": "isHidden",
              "type": "bool"
            }
          ],
          "internalType": "struct BlogStorage.BlogDetail",
          "name": "",
          "type": "tuple"
        }
      ],
      "stateMutability": "view",
      "type": "function"
    },
    {
      "inputs": [
        {
          "internalType": "uint256",
          "name": "blogId",
          "type": "uint256"
        },
        {
          "internalType": "uint256",
          "name": "commentId",
          "type": "uint256"
        }
      ],
      "name": "getComment",
      "outputs": [
        {
          "internalType": "address",
          "name": "buyer",
          "type": "address"
        },
        {
          "internalType": "uint256",
          "name": "date",
          "type": "uint256"
        },
        {
          "internalType": "string",
          "name": "content",
          "type": "string"
        }
      ],
      "stateMutability": "view",
      "type": "function"
    },
    {
      "inputs": [
        {
          "internalType": "address",
          "name": "user",
          "type": "address"
        }
      ],
      "name": "getUserAlbums",
      "outputs": [
        {
          "internalType": "uint256[]",
          "name": "",
          "type": "uint256[]"
        }
      ],
      "stateMutability": "view",
      "type": "function"
    },
    {
      "inputs": [
        {
          "internalType": "address",
          "name": "user",
          "type": "address"
        }
      ],
      "name": "getUserPublishedBlogs",
      "outputs": [
        {
          "internalType": "uint256[]",
          "name": "",
          "type": "uint256[]"
        }
      ],
      "stateMutability": "view",
      "type": "function"
    },
    {
      "inputs": [
        {
          "internalType": "address",
          "name": "user",
          "type": "address"
        }
      ],
      "name": "getUserPurchasedBlogs",
      "outputs": [
        {
          "internalType": "uint256[]",
          "name": "",
          "type": "uint256[]"
        }
      ],
      "stateMutability": "view",
      "type": "function"
    },
    {
      "inputs": [
        {
          "internalType": "address",
          "name": "user",
          "type": "address"
        }
      ],
      "name": "getUsername",
      "outputs": [
        {
          "internalType": "string",
          "name": "",
          "type": "string"
        }
      ],
      "stateMutability": "view",
      "type": "function"
    },
    {
      "inputs": [
        {
          "internalType": "address",
          "name": "",
          "type": "address"
        },
        {
          "internalType": "uint256",
          "name": "",
          "type": "uint256"
        }
      ],
      "name": "hasPurchased",
      "outputs": [
        {
          "internalType": "bool",
          "name": "",
          "type": "bool"
        }
      ],
      "stateMutability": "view",
      "type": "function"
    },
    {
      "inputs": [
        {
          "internalType": "address",
          "name": "",
          "type": "address"
        },
        {
          "internalType": "uint256",
          "name": "",
          "type": "uint256"
        }
      ],
      "name": "hasViewed",
      "outputs": [
        {
          "internalType": "bool",
          "name": "",
          "type": "bool"
        }
      ],
      "stateMutability": "view",
      "type": "function"
    },
    {
      "inputs": [
        {
          "internalType": "uint256",
          "name": "",
          "type": "uint256"
        },
        {
          "internalType": "address",
          "name": "",
          "type": "address"
        }
      ],
      "name": "hasVotedOnProposal",
      "outputs": [
        {
          "internalType": "bool",
          "name": "",
          "type": "bool"
        }
      ],
      "stateMutability": "view",
      "type": "function"
    },
    {
      "inputs": [
        {
          "internalType": "uint256",
          "name": "",
          "type": "uint256"
        }
      ],
      "name": "isBlogHidden",
      "outputs": [
        {
          "internalType": "bool",
          "name": "",
          "type": "bool"
        }
      ],
      "stateMutability": "view",
      "type": "function"
    },
    {
      "inputs": [
        {
          "internalType": "address",
          "name": "",
          "type": "address"
        }
      ],
      "name": "lastFaucetTime",
      "outputs": [
        {
          "internalType": "uint256",
          "name": "",
          "type": "uint256"
        }
      ],
      "stateMutability": "view",
      "type": "function"
    },
    {
      "inputs": [],
      "name": "name",
      "outputs": [
        {
          "internalType": "string",
          "name": "",
          "type": "string"
        }
      ],
      "stateMutability": "view",
      "type": "function"
    },
    {
      "inputs": [],
      "name": "proposalCount",
      "outputs": [
        {
          "internalType": "uint256",
          "name": "",
          "type": "uint256"
        }
      ],
      "stateMutability": "view",
      "type": "function"
    },
    {
      "inputs": [
        {
          "internalType": "uint256",
          "name": "",
          "type": "uint256"
        }
      ],
      "name": "proposals",
      "outputs": [
        {
          "internalType": "uint256",
          "name": "blogId",
          "type": "uint256"
        },
        {
          "internalType": "address",
          "name": "proposer",
          "type": "address"
        },
        {
          "internalType": "string",
          "name": "reason",
          "type": "string"
        },
        {
          "internalType": "uint256",
          "name": "votesFor",
          "type": "uint256"
        },
        {
          "internalType": "uint256",
          "name": "endTime",
          "type": "uint256"
        },
        {
          "internalType": "bool",
          "name": "executed",
          "type": "bool"
        }
      ],
      "stateMutability": "view",
      "type": "function"
    },
    {
      "inputs": [
        {
          "internalType": "string",
          "name": "name",
          "type": "string"
        },
        {
          "internalType": "string",
          "name": "intro",
          "type": "string"
        },
        {
          "internalType": "string",
          "name": "ipfsCID",
          "type": "string"
        },
        {
          "internalType": "uint256",
          "name": "price",
          "type": "uint256"
        }
      ],
      "name": "publishBlog",
      "outputs": [
        {
          "internalType": "uint256",
          "name": "blogId",
          "type": "uint256"
        },
        {
          "internalType": "string",
          "name": "cid",
          "type": "string"
        }
      ],
      "stateMutability": "nonpayable",
      "type": "function"
    },
    {
      "inputs": [
        {
          "internalType": "uint256",
          "name": "blogId",
          "type": "uint256"
        }
      ],
      "name": "purchaseBlog",
      "outputs": [],
      "stateMutability": "nonpayable",
      "type": "function"
    },
    {
      "inputs": [
        {
          "internalType": "string",
          "name": "cid",
          "type": "string"
        }
      ],
      "name": "setAvatar",
      "outputs": [],
      "stateMutability": "nonpayable",
      "type": "function"
    },
    {
      "inputs": [
        {
          "internalType": "string",
          "name": "name",
          "type": "string"
        }
      ],
      "name": "setUsername",
      "outputs": [],
      "stateMutability": "nonpayable",
      "type": "function"
    },
    {
      "inputs": [],
      "name": "symbol",
      "outputs": [
        {
          "internalType": "string",
          "name": "",
          "type": "string"
        }
      ],
      "stateMutability": "view",
      "type": "function"
    },
    {
      "inputs": [],
      "name": "totalSupply",
      "outputs": [
        {
          "internalType": "uint256",
          "name": "",
          "type": "uint256"
        }
      ],
      "stateMutability": "view",
      "type": "function"
    },
    {
      "inputs": [
        {
          "internalType": "address",
          "name": "to",
          "type": "address"
        },
        {
          "internalType": "uint256",
          "name": "value",
          "type": "uint256"
        }
      ],
      "name": "transfer",
      "outputs": [
        {
          "internalType": "bool",
          "name": "",
          "type": "bool"
        }
      ],
      "stateMutability": "nonpayable",
      "type": "function"
    },
    {
      "inputs": [
        {
          "internalType": "address",
          "name": "from",
          "type": "address"
        },
        {
          "internalType": "address",
          "name": "to",
          "type": "address"
        },
        {
          "internalType": "uint256",
          "name": "value",
          "type": "uint256"
        }
      ],
      "name": "transferFrom",
      "outputs": [
        {
          "internalType": "bool",
          "name": "",
          "type": "bool"
        }
      ],
      "stateMutability": "nonpayable",
      "type": "function"
    },
    {
      "inputs": [
        {
          "internalType": "uint256",
          "name": "albumId",
          "type": "uint256"
        },
        {
          "internalType": "string",
          "name": "newName",
          "type": "string"
        }
      ],
      "name": "updateAlbum",
      "outputs": [],
      "stateMutability": "nonpayable",
      "type": "function"
    },
    {
      "inputs": [
        {
          "internalType": "uint256",
          "name": "blogId",
          "type": "uint256"
        },
        {
          "internalType": "string",
          "name": "newName",
          "type": "string"
        },
        {
          "internalType": "string",
          "name": "newIntro",
          "type": "string"
        },
        {
          "internalType": "string",
          "name": "newIpfsCID",
          "type": "string"
        }
      ],
      "name": "updateBlog",
      "outputs": [],
      "stateMutability": "nonpayable",
      "type": "function"
    },
    {
      "inputs": [
        {
          "internalType": "address",
          "name": "",
          "type": "address"
        },
        {
          "internalType": "uint256",
          "name": "",
          "type": "uint256"
        }
      ],
      "name": "userAlbumsList",
      "outputs": [
        {
          "internalType": "uint256",
          "name": "",
          "type": "uint256"
        }
      ],
      "stateMutability": "view",
      "type": "function"
    },
    {
      "inputs": [
        {
          "internalType": "uint256",
          "name": "blogId",
          "type": "uint256"
        }
      ],
      "name": "viewBlog",
      "outputs": [],
      "stateMutability": "nonpayable",
      "type": "function"
    },
    {
      "inputs": [
        {
          "internalType": "uint256",
          "name": "proposalId",
          "type": "uint256"
        }
      ],
      "name": "voteOnProposal",
      "outputs": [],
      "stateMutability": "nonpayable",
      "type": "function"
    }
  ],
  "bytecode": "0x608060405234801561000f575f5ffd5b5060405180604001604052806009815260200168213637b3aa37b5b2b760b91b81525060405180604001604052806003815260200162424c4760e81b815250816003908161005d9190610290565b50600461006a8282610290565b50505061008533670de0b6b3a764000061008a60201b60201c565b610373565b6001600160a01b0382166100b85760405163ec442f0560e01b81525f60048201526024015b60405180910390fd5b6100c35f83836100c7565b5050565b6001600160a01b0383166100f1578060025f8282546100e6919061034e565b909155506101619050565b6001600160a01b0383165f90815260208190526040902054818110156101435760405163391434e360e21b81526001600160a01b038516600482015260248101829052604481018390526064016100af565b6001600160a01b0384165f9081526020819052604090209082900390555b6001600160a01b03821661017d5760028054829003905561019b565b6001600160a01b0382165f9081526020819052604090208054820190555b816001600160a01b0316836001600160a01b03167fddf252ad1be2c89b69c2b068fc378daa952ba7f163c4a11628f55a4df523b3ef836040516101e091815260200190565b60405180910390a3505050565b634e487b7160e01b5f52604160045260245ffd5b600181811c9082168061021557607f821691505b60208210810361023357634e487b7160e01b5f52602260045260245ffd5b50919050565b601f82111561028b578282111561028b57805f5260205f20601f840160051c602085101561026457505f5b90810190601f840160051c035f5b81811015610287575f83820155600101610272565b5050505b505050565b81516001600160401b038111156102a9576102a96101ed565b6102bd816102b78454610201565b84610239565b6020601f8211600181146102ef575f83156102d85750848201515b5f19600385901b1c1916600184901b178455610347565b5f84815260208120601f198516915b8281101561031e57878501518255602094850194600190920191016102fe565b508482101561033b57868401515f19600387901b60f8161c191681555b505060018360011b0184555b5050505050565b8082018082111561036d57634e487b7160e01b5f52601160045260245ffd5b92915050565b613b3e806103805f395ff3fe608060405234801561000f575f5ffd5b50600436106102cb575f3560e01c80637d1d5d191161017b578063af21c8b2116100e4578063ce8ac0331161009e578063e9499f2711610079578063e9499f271461071b578063ea5df0591461072e578063ed59313a14610751578063f504db5214610764575f5ffd5b8063ce8ac033146106c7578063da35c664146106da578063dd62ed3e146106e3575f5ffd5b8063af21c8b214610660578063baca925c14610673578063be3ac0bc14610686578063c7fe017e14610699578063c8b71c95146106ac578063ce43c032146106b4575f5ffd5b806398d53a8f1161013557806398d53a8f146105dd578063a438d208146105f0578063a9059cbb146105fa578063aa7e56831461060d578063acaff68214610620578063add68edc1461064d575f5ffd5b80637d1d5d191461054e57806380f052d81461055857806386a5be711461057f57806388869bd4146105a057806395d89b41146105b357806398b87125146105bb575f5ffd5b80633c3eea6f1161023757806363759099116101f15780636ec5239f116101cc5780636ec5239f146104e457806370a08231146104f7578063766976401461051f5780637bc1f6cc1461052f575f5ffd5b806363759099146104a1578063671dd275146104b45780636ced15a8146104c4575f5ffd5b80633c3eea6f14610411578063488927531461042457806348c54b9d146104465780634abb7c001461044e5780635272fb5b14610461578063600303d814610474575f5ffd5b806313aa08761161028857806313aa08761461039757806318160ddd146103b757806323b872dd146103c95780632b809e33146103dc5780632df15d54146103ef578063313ce56714610402575f5ffd5b8063013cf08b146102cf57806306fdde03146102fd578063095ea7b3146103125780630d61b51914610335578063114b290f1461034a578063119231321461036a575b5f5ffd5b6102e26102dd3660046130b4565b610777565b6040516102f4969594939291906130f9565b60405180910390f35b610305610840565b6040516102f49190613142565b610325610320366004613176565b6108d0565b60405190151581526020016102f4565b6103486103433660046130b4565b6108e9565b005b61035d6103583660046130b4565b610a72565b6040516102f4919061319e565b610325610378366004613176565b600760209081525f928352604080842090915290825290205460ff1681565b6103aa6103a536600461324c565b610d18565b6040516102f49190613265565b6002545b6040519081526020016102f4565b6103256103d73660046132a7565b610d84565b6103486103ea3660046130b4565b610da7565b6103486103fd3660046130b4565b610f5d565b604051601281526020016102f4565b61034861041f3660046132e1565b611087565b6104376104323660046132e1565b611266565b6040516102f493929190613301565b6103486113bc565b61034861045c366004613375565b611477565b6103aa61046f36600461324c565b611646565b6103256104823660046133bd565b600c60209081525f928352604080842090915290825290205460ff1681565b6103486104af366004613375565b6116ad565b6103bb681b1ae4d6e2ef50000081565b6104d76104d23660046130b4565b611821565b6040516102f491906133e7565b6103486104f236600461346c565b61196f565b6103bb61050536600461324c565b6001600160a01b03165f9081526020819052604090205490565b6103bb68056bc75e2d6310000081565b6103bb61053d36600461324c565b60096020525f908152604090205481565b6103bb6201518081565b61056b6105663660046130b4565b6119d3565b6040516102f49897969594939291906134ab565b61059261058d36600461351d565b611bc1565b6040516102f49291906135c4565b6103aa6105ae36600461324c565b611dd5565b610305611e3c565b6103256105c93660046130b4565b600d6020525f908152604090205460ff1681565b6103486105eb366004613375565b611e4b565b6103bb6203f48081565b610325610608366004613176565b61200d565b6103bb61061b366004613375565b61201a565b61032561062e366004613176565b600860209081525f928352604080842090915290825290205460ff1681565b61034861065b3660046130b4565b612249565b61034861066e3660046130b4565b61241e565b6103bb610681366004613176565b61257b565b6103486106943660046135e4565b6125a6565b6103486106a73660046130b4565b6127b0565b6005546103bb565b6103056106c236600461324c565b6128f1565b6103056106d536600461324c565b612993565b6103bb600b5481565b6103bb6106f136600461368c565b6001600160a01b039182165f90815260016020908152604080832093909416825291909152205490565b6103bb61072936600461346c565b6129bc565b61074161073c3660046130b4565b612aec565b6040516102f494939291906136b4565b61034861075f36600461346c565b612bba565b6103056107723660046130b4565b612c5f565b600a6020525f908152604090208054600182015460028301805492936001600160a01b03909216926107a8906136ef565b80601f01602080910402602001604051908101604052809291908181526020018280546107d4906136ef565b801561081f5780601f106107f65761010080835404028352916020019161081f565b820191905f5260205f20905b81548152906001019060200180831161080257829003601f168201915b50505050600383015460048401546005909401549293909290915060ff1686565b60606003805461084f906136ef565b80601f016020809104026020016040519081016040528092919081815260200182805461087b906136ef565b80156108c65780601f1061089d576101008083540402835291602001916108c6565b820191905f5260205f20905b8154815290600101906020018083116108a957829003601f168201915b5050505050905090565b5f336108dd818585612db4565b60019150505b92915050565b600b5481106109395760405162461bcd60e51b8152602060048201526017602482015276141c9bdc1bdcd85b08191bd95cc81b9bdd08195e1a5cdd604a1b60448201526064015b60405180910390fd5b5f818152600a60205260409020600481015442101561099a5760405162461bcd60e51b815260206004820152601760248201527f566f74696e67206973207374696c6c206f6e676f696e670000000000000000006044820152606401610930565b600581015460ff16156109ef5760405162461bcd60e51b815260206004820152601960248201527f50726f706f73616c20616c7265616479206578656375746564000000000000006044820152606401610930565b60058101805460ff1916600117905560038101545f90681b1ae4d6e2ef50000011610a33575080545f908152600d60205260409020805460ff191660019081179091555b8154604051821515815284907f675c71fb6cbf880ec8fed9c345ef0bb3019cc44b99708edb402b85a7535d7d19906020015b60405180910390a3505050565b610ac06040518061010001604052805f6001600160a01b031681526020016060815260200160608152602001606081526020015f81526020015f81526020015f81526020015f151581525090565b6005548210610ae15760405162461bcd60e51b815260040161093090613727565b5f60058381548110610af557610af561374f565b5f91825260209182902060408051610100810190915260099092020180546001600160a01b03168252600181018054919450919283019190610b36906136ef565b80601f0160208091040260200160405190810160405280929190818152602001828054610b62906136ef565b8015610bad5780601f10610b8457610100808354040283529160200191610bad565b820191905f5260205f20905b815481529060010190602001808311610b9057829003601f168201915b50505050508152602001826002018054610bc6906136ef565b80601f0160208091040260200160405190810160405280929190818152602001828054610bf2906136ef565b8015610c3d5780601f10610c1457610100808354040283529160200191610c3d565b820191905f5260205f20905b815481529060010190602001808311610c2057829003601f168201915b50505050508152602001826003018054610c56906136ef565b80601f0160208091040260200160405190810160405280929190818152602001828054610c82906136ef565b8015610ccd5780601f10610ca457610100808354040283529160200191610ccd565b820191905f5260205f20905b815481529060010190602001808311610cb057829003601f168201915b50505091835250506004830154602080830191909152600584015460408084019190915260069094015460608301525f958652600d9052919093205460ff1615156080909101525090565b6001600160a01b0381165f90815260066020908152604091829020600101805483518184028101840190945280845260609392830182828015610d7857602002820191905f5260205f20905b815481526020019060010190808311610d64575b50505050509050919050565b5f33610d91858285612dc6565b610d9c858585612e42565b506001949350505050565b6005548110610dc85760405162461bcd60e51b815260040161093090613727565b5f818152600d602052604090205460ff1615610df65760405162461bcd60e51b815260040161093090613763565b5f60058281548110610e0a57610e0a61374f565b5f91825260209091206009909102018054909150336001600160a01b0390911603610e685760405162461bcd60e51b815260206004820152600e60248201526d31b0b713ba10313abc9039b2b63360911b6044820152606401610930565b335f90815260076020908152604080832085845290915290205460ff1615610ec65760405162461bcd60e51b8152602060048201526011602482015270185b1c9958591e481c1d5c98da185cd959607a1b6044820152606401610930565b60048101548015610ee8578154610ee89033906001600160a01b031683612e42565b335f8181526007602090815260408083208784528252808320805460ff19166001908117909155848452600683528184208054918201815584529190922001859055518491907f2699821cb1d56670c4514baa415187378c51dd6c432312456c70a83e13d51de890610a659085815260200190565b600e548110610f7e5760405162461bcd60e51b81526004016109309061379a565b5f600e8281548110610f9257610f9261374f565b5f918252602090912060059091020180549091506001600160a01b03163314610ff55760405162461bcd60e51b81526020600482015260156024820152744f6e6c79206f776e65722063616e2064656c65746560581b6044820152606401610930565b600381015460ff161561104a5760405162461bcd60e51b815260206004820152601860248201527f416c62756d20697320616c72656164792064656c6574656400000000000000006044820152606401610930565b60038101805460ff1916600117905560405182907fbbf9b1e5bb74e664a1d5be46e50ff2d9463504aff1be600c498683d61ca8e918905f90a25050565b600e5482106110a85760405162461bcd60e51b81526004016109309061379a565b5f600e83815481106110bc576110bc61374f565b5f918252602090912060059091020180549091506001600160a01b031633146111275760405162461bcd60e51b815260206004820152601e60248201527f4f6e6c79206f776e65722063616e2064656c65746520706963747572657300006044820152606401610930565b600481015482106111735760405162461bcd60e51b8152602060048201526016602482015275141a58dd1d5c9948191bd95cc81b9bdd08195e1a5cdd60521b6044820152606401610930565b8060040182815481106111885761118861374f565b5f91825260209091206001600390920201015460ff16156111eb5760405162461bcd60e51b815260206004820152601760248201527f5069637475726520616c72656164792064656c657465640000000000000000006044820152606401610930565b60018160040183815481106112025761120261374f565b905f5260205f2090600302016001015f6101000a81548160ff021916908315150217905550827f70c54b7a7ea03cbee2ffafee087a68096f125f384cfb3d2569a41de2397556898360405161125991815260200190565b60405180910390a2505050565b5f5f6060600580549050851061128e5760405162461bcd60e51b8152600401610930906137c8565b5f600586815481106112a2576112a261374f565b905f5260205f2090600902019050806007015485106112fc5760405162461bcd60e51b815260206004820152601660248201527510dbdb5b595b9d08191bd95cc81b9bdd08195e1a5cdd60521b6044820152606401610930565b5f8581526008820160205260409020805460018201546002830180546001600160a01b0390931692819061132f906136ef565b80601f016020809104026020016040519081016040528092919081815260200182805461135b906136ef565b80156113a65780601f1061137d576101008083540402835291602001916113a6565b820191905f5260205f20905b81548152906001019060200180831161138957829003601f168201915b5050505050905094509450945050509250925092565b335f908152600960205260409020546113d9906201518090613809565b4210156114135760405162461bcd60e51b8152602060048201526008602482015267323420686f75727360c01b6044820152606401610930565b335f8181526009602052604090204290556114379068056bc75e2d63100000612e9f565b60405168056bc75e2d63100000815233907f5d4f415c63cd8a5874d9d291cdd64cec37e5dc236d90d659c958d109d78074b39060200160405180910390a2565b600e5483106114985760405162461bcd60e51b81526004016109309061379a565b806114e55760405162461bcd60e51b815260206004820152601960248201527f496d616765204349442063616e6e6f7420626520656d707479000000000000006044820152606401610930565b5f600e84815481106114f9576114f961374f565b5f918252602090912060059091020180549091506001600160a01b031633146115645760405162461bcd60e51b815260206004820152601b60248201527f4f6e6c79206f776e65722063616e2061646420706963747572657300000000006044820152606401610930565b6004810180546040805160806020601f8801819004028201810190925260608101868152929392909182919088908890819085018382808284375f92018290525093855250505060208083018290524260409093019290925283546001810185559381522081519192600302019081906115de9082613886565b50602082015160018201805460ff19169115159190911790556040918201516002909101555185907f0173fd727291d1fb78ddf9036766049856b0614ef064d277e6761f948f49bc9c906116379084908890889061396d565b60405180910390a25050505050565b6001600160a01b0381165f908152600f6020908152604091829020805483518184028101840190945280845260609392830182828015610d7857602002820191905f5260205f2090815481526020019060010190808311610d645750505050509050919050565b600e5483106116ce5760405162461bcd60e51b81526004016109309061379a565b5f600e84815481106116e2576116e261374f565b5f918252602090912060059091020180549091506001600160a01b031633146117455760405162461bcd60e51b81526020600482015260156024820152744f6e6c79206f776e65722063616e2075706461746560581b6044820152606401610930565b600381015460ff161561178d5760405162461bcd60e51b815260206004820152601060248201526f105b189d5b481a5cc819195b195d195960821b6044820152606401610930565b816117d15760405162461bcd60e51b81526020600482015260146024820152734e616d652063616e6e6f7420626520656d70747960601b6044820152606401610930565b600181016117e0838583613986565b50837f3ab529860f6675f804464801641530e8d468dc7fc08a61c3374ee2cfcebed7ca8484604051611813929190613a40565b60405180910390a250505050565b600e5460609082106118455760405162461bcd60e51b81526004016109309061379a565b600e82815481106118585761185861374f565b905f5260205f209060050201600401805480602002602001604051908101604052809291908181526020015f905b82821015611964578382905f5260205f2090600302016040518060600160405290815f820180546118b6906136ef565b80601f01602080910402602001604051908101604052809291908181526020018280546118e2906136ef565b801561192d5780601f106119045761010080835404028352916020019161192d565b820191905f5260205f20905b81548152906001019060200180831161191057829003601f168201915b505050918352505060018281015460ff16151560208084019190915260029093015460409092019190915291835292019101611886565b505050509050919050565b335f90815260066020526040902060020161198b828483613986565b50336001600160a01b03167fed6fbee54fb754678a908527ed51cf00840e56cca6b00760c99382dccf6866f983836040516119c7929190613a40565b60405180910390a25050565b600581815481106119e2575f80fd5b5f918252602090912060099091020180546001820180546001600160a01b03909216935090611a10906136ef565b80601f0160208091040260200160405190810160405280929190818152602001828054611a3c906136ef565b8015611a875780601f10611a5e57610100808354040283529160200191611a87565b820191905f5260205f20905b815481529060010190602001808311611a6a57829003601f168201915b505050505090806002018054611a9c906136ef565b80601f0160208091040260200160405190810160405280929190818152602001828054611ac8906136ef565b8015611b135780601f10611aea57610100808354040283529160200191611b13565b820191905f5260205f20905b815481529060010190602001808311611af657829003601f168201915b505050505090806003018054611b28906136ef565b80601f0160208091040260200160405190810160405280929190818152602001828054611b54906136ef565b8015611b9f5780601f10611b7657610100808354040283529160200191611b9f565b820191905f5260205f20905b815481529060010190602001808311611b8257829003601f168201915b5050505050908060040154908060050154908060060154908060070154905088565b5f606087611bfe5760405162461bcd60e51b815260206004820152600a6024820152696e616d6520656d70747960b01b6044820152606401610930565b83611c3b5760405162461bcd60e51b815260206004820152600d60248201526c6970667343494420656d70747960981b6044820152606401610930565b600580546001810182555f91909152600981027f036b6384b5eca791c62761152d0c79bb0604c104a5fb6f4eb0703f3154bb3db0810180546001600160a01b031916331781559193507f036b6384b5eca791c62761152d0c79bb0604c104a5fb6f4eb0703f3154bb3db101611cb18a8c83613986565b5060028101611cc1888a83613986565b5060038101611cd1868883613986565b508381600401819055505f81600501819055504281600601819055505f816007018190555060065f336001600160a01b03166001600160a01b031681526020019081526020015f2060010183908060018154018082558091505060019003905f5260205f20015f909190919091505582336001600160a01b03167f6caa18e05745789fd2c15ae40ed7d9c896c4127fc2816f404f3595b80fa9a4b688888e8e604051611d809493929190613a53565b60405180910390a382868681818080601f0160208091040260200160405190810160405280939291908181526020018383808284375f9201919091525095985091965050505050505097509795505050505050565b6001600160a01b0381165f90815260066020908152604091829020805483518184028101840190945280845260609392830182828015610d7857602002820191905f5260205f2090815481526020019060010190808311610d645750505050509050919050565b60606004805461084f906136ef565b6005548310611e6c5760405162461bcd60e51b8152600401610930906137c8565b5f838152600d602052604090205460ff1615611ec35760405162461bcd60e51b8152602060048201526016602482015275213637b39034b99030b63932b0b23c903434b23232b760511b6044820152606401610930565b600b80545f9182611ed383613a84565b9190505590506040518060c00160405280858152602001336001600160a01b0316815260200184848080601f0160208091040260200160405190810160405280939291908181526020018383808284375f9201829052509385525050506020820152604001611f456203f48042613809565b81525f6020918201819052838152600a825260409081902083518155918301516001830180546001600160a01b0319166001600160a01b039092169190911790558201516002820190611f989082613886565b50606082015160038201556080820151600482015560a0909101516005909101805460ff1916911515919091179055604051849082907f6f3322e9e9bcd9739d7dcbb73278ee28b363d39f7900bd404831ee8dfb41608e90611fff90339088908890613a9c565b60405180910390a350505050565b5f336108dd818585612e42565b6005545f90841061203d5760405162461bcd60e51b8152600401610930906137c8565b5f848152600d602052604090205460ff161561206b5760405162461bcd60e51b815260040161093090613763565b816120a85760405162461bcd60e51b815260206004820152600d60248201526c436f6d6d656e7420656d70747960981b6044820152606401610930565b5f600585815481106120bc576120bc61374f565b5f91825260208083203384526007825260408085208a86529092529220546009909102909101915060ff1680806120fc575081546001600160a01b031633145b6121485760405162461bcd60e51b815260206004820181905260248201527f4f6e6c7920627579657273206f72206f776e65722063616e20636f6d6d656e746044820152606401610930565b5f826007015490506040518060600160405280336001600160a01b0316815260200142815260200187878080601f0160208091040260200160405190810160405280939291908181526020018383808284375f920182905250939094525050838152600886016020908152604091829020845181546001600160a01b0319166001600160a01b039091161781559084015160018201559083015190915060028201906121f49082613886565b509050506001836007015f82825461220c9190613809565b90915550506040513390829089907fdb54cde47150062529bc4f2e10c2493c8ae39bc079c9c24f9e365c135098d4bb905f90a49695505050505050565b600b5481106122945760405162461bcd60e51b8152602060048201526017602482015276141c9bdc1bdcd85b08191bd95cc81b9bdd08195e1a5cdd604a1b6044820152606401610930565b5f818152600a60205260409020600481015442106122f45760405162461bcd60e51b815260206004820152601760248201527f566f74696e6720706572696f642068617320656e6465640000000000000000006044820152606401610930565b5f828152600c6020908152604080832033845290915290205460ff16156123565760405162461bcd60e51b8152602060048201526016602482015275165bdd481a185d9948185b1c9958591e481d9bdd195960521b6044820152606401610930565b335f90815260208190526040902054806123b25760405162461bcd60e51b815260206004820152601b60248201527f596f75206e65656420424c4720746f6b656e7320746f20766f746500000000006044820152606401610930565b80826003015f8282546123c59190613809565b90915550505f838152600c602090815260408083203380855290835292819020805460ff191660011790555183815285917f1abe610cf2bf87e57dcc1181fcf5ac0934e843d8344ab9eed6e86c799f62585e9101610a65565b60055481106124605760405162461bcd60e51b815260206004820152600e60248201526d109b1bd9c81b9bdd08195e1a5cdd60921b6044820152606401610930565b5f600582815481106124745761247461374f565b5f918252602090912060099091020180549091506001600160a01b031633146124d75760405162461bcd60e51b81526020600482015260156024820152744f6e6c79206f776e65722063616e2064656c65746560581b6044820152606401610930565b5f828152600d602052604090205460ff16156125355760405162461bcd60e51b815260206004820152601760248201527f426c6f6720697320616c72656164792064656c657465640000000000000000006044820152606401610930565b5f828152600d6020526040808220805460ff1916600117905551339184917ff70c1f20f5b267d865f5228694bf417b945f70f12a31626b5194aabf6580d1589190a35050565b600f602052815f5260405f208181548110612594575f80fd5b905f5260205f20015f91509150505481565b60055487106125e85760405162461bcd60e51b815260206004820152600e60248201526d109b1bd9c81b9bdd08195e1a5cdd60921b6044820152606401610930565b5f600588815481106125fc576125fc61374f565b5f918252602090912060099091020180549091506001600160a01b0316331461265f5760405162461bcd60e51b81526020600482015260156024820152744f6e6c79206f776e65722063616e2075706461746560581b6044820152606401610930565b5f888152600d602052604090205460ff16156126bd5760405162461bcd60e51b815260206004820152601960248201527f426c6f672069732068696464656e206f722064656c65746564000000000000006044820152606401610930565b856126f75760405162461bcd60e51b815260206004820152600a6024820152696e616d6520656d70747960b01b6044820152606401610930565b816127345760405162461bcd60e51b815260206004820152600d60248201526c6970667343494420656d70747960981b6044820152606401610930565b60018101612743878983613986565b5060028101612753858783613986565b5060038101612763838583613986565b50877f116f9db5b845f6bb2d069811796d8ca9ef26b9af926f0514725a60a8db8925c688888888888860405161279e96959493929190613ac0565b60405180910390a25050505050505050565b60055481106127d15760405162461bcd60e51b815260040161093090613727565b5f818152600d602052604090205460ff16156127ff5760405162461bcd60e51b815260040161093090613763565b335f90815260086020908152604080832084845290915290205460ff166128ee57335f9081526008602090815260408083208484529091529020805460ff19166001908117909155600580548390811061285b5761285b61374f565b905f5260205f2090600902016005015f8282546128789190613809565b92505081905550807fb4412e7be9511bfd8e546e07ad63a2d958e15c96b72062659d429a14942a8033600583815481106128b4576128b461374f565b905f5260205f20906009020160050154336040516128e59291909182526001600160a01b0316602082015260400190565b60405180910390a25b50565b6001600160a01b0381165f90815260066020526040902060030180546060919061291a906136ef565b80601f0160208091040260200160405190810160405280929190818152602001828054612946906136ef565b8015610d785780601f1061296857610100808354040283529160200191610d78565b820191905f5260205f20905b8154815290600101906020018083116129745750939695505050505050565b6001600160a01b0381165f90815260066020526040902060020180546060919061291a906136ef565b5f81612a0a5760405162461bcd60e51b815260206004820152601a60248201527f416c62756d206e616d652063616e6e6f7420626520656d7074790000000000006044820152606401610930565b600e80546001810182555f91909152600581027fbb7b4a454dc3493923482f07822329ed19e8244eff582cc204f8554c3620c3fd810180546001600160a01b03191633178155907fbb7b4a454dc3493923482f07822329ed19e8244eff582cc204f8554c3620c3fe01612a7e858783613986565b50426002820155335f818152600f6020908152604080832080546001810182559084529190922001849055518391907f2051c8311aa477738e93fc1fe8aaad1443b3c528eb3f3201a62b93ebbbaf656e90612adc9089908990613a40565b60405180910390a3509392505050565b600e8181548110612afb575f80fd5b5f918252602090912060059091020180546001820180546001600160a01b03909216935090612b29906136ef565b80601f0160208091040260200160405190810160405280929190818152602001828054612b55906136ef565b8015612ba05780601f10612b7757610100808354040283529160200191612ba0565b820191905f5260205f20905b815481529060010190602001808311612b8357829003601f168201915b50505050600283015460039093015491929160ff16905084565b80612c075760405162461bcd60e51b815260206004820152601860248201527f557365726e616d652063616e6e6f7420626520656d70747900000000000000006044820152606401610930565b335f908152600660205260409020600301612c23828483613986565b50336001600160a01b03167f1af4cc3acb57f067d1d582e3932be6692a4c9a31d8b3a8567dfc1c340a02d53483836040516119c7929190613a40565b600e546060908210612c835760405162461bcd60e51b81526004016109309061379a565b5f600e8381548110612c9757612c9761374f565b5f9182526020822060059091020191505b6004820154811015612d9e57816004018181548110612cc957612cc961374f565b5f91825260209091206001600390920201015460ff16612d9657816004018181548110612cf857612cf861374f565b905f5260205f2090600302015f018054612d11906136ef565b80601f0160208091040260200160405190810160405280929190818152602001828054612d3d906136ef565b8015612d885780601f10612d5f57610100808354040283529160200191612d88565b820191905f5260205f20905b815481529060010190602001808311612d6b57829003601f168201915b505050505092505050919050565b600101612ca8565b505060408051602081019091525f815292915050565b612dc18383836001612ed7565b505050565b6001600160a01b038381165f908152600160209081526040808320938616835292905220545f19811015612e3c5781811015612e2e57604051637dc7a0d960e11b81526001600160a01b03841660048201526024810182905260448101839052606401610930565b612e3c84848484035f612ed7565b50505050565b6001600160a01b038316612e6b57604051634b637e8f60e11b81525f6004820152602401610930565b6001600160a01b038216612e945760405163ec442f0560e01b81525f6004820152602401610930565b612dc1838383612f9b565b6001600160a01b038216612ec85760405163ec442f0560e01b81525f6004820152602401610930565b612ed35f8383612f9b565b5050565b6001600160a01b038416612f005760405163e602df0560e01b81525f6004820152602401610930565b6001600160a01b038316612f2957604051634a1406b160e11b81525f6004820152602401610930565b6001600160a01b038085165f9081526001602090815260408083209387168352929052208290558015612e3c57826001600160a01b0316846001600160a01b03167f8c5be1e5ebec7d5bd14f71427d1e84f3dd0314c0f7b2291e5b200ac8c7c3b92584604051611fff91815260200190565b6001600160a01b038316612fc5578060025f828254612fba9190613809565b909155506130359050565b6001600160a01b0383165f90815260208190526040902054818110156130175760405163391434e360e21b81526001600160a01b03851660048201526024810182905260448101839052606401610930565b6001600160a01b0384165f9081526020819052604090209082900390555b6001600160a01b0382166130515760028054829003905561306f565b6001600160a01b0382165f9081526020819052604090208054820190555b816001600160a01b0316836001600160a01b03167fddf252ad1be2c89b69c2b068fc378daa952ba7f163c4a11628f55a4df523b3ef83604051610a6591815260200190565b5f602082840312156130c4575f5ffd5b5035919050565b5f81518084528060208401602086015e5f602082860101526020601f19601f83011685010191505092915050565b8681526001600160a01b038616602082015260c0604082018190525f90613122908301876130cb565b6060830195909552506080810192909252151560a0909101529392505050565b602081525f61315460208301846130cb565b9392505050565b80356001600160a01b0381168114613171575f5ffd5b919050565b5f5f60408385031215613187575f5ffd5b6131908361315b565b946020939093013593505050565b602081526131b86020820183516001600160a01b03169052565b5f602083015161010060408401526131d46101208401826130cb565b90506040840151601f198483030160608501526131f182826130cb565b9150506060840151601f1984830301608085015261320f82826130cb565b915050608084015160a084015260a084015160c084015260c084015160e084015260e084015161324461010085018215159052565b509392505050565b5f6020828403121561325c575f5ffd5b6131548261315b565b602080825282518282018190525f918401906040840190835b8181101561329c57835183526020938401939092019160010161327e565b509095945050505050565b5f5f5f606084860312156132b9575f5ffd5b6132c28461315b565b92506132d06020850161315b565b929592945050506040919091013590565b5f5f604083850312156132f2575f5ffd5b50508035926020909101359150565b60018060a01b0384168152826020820152606060408201525f61332760608301846130cb565b95945050505050565b5f5f83601f840112613340575f5ffd5b50813567ffffffffffffffff811115613357575f5ffd5b60208301915083602082850101111561336e575f5ffd5b9250929050565b5f5f5f60408486031215613387575f5ffd5b83359250602084013567ffffffffffffffff8111156133a4575f5ffd5b6133b086828701613330565b9497909650939450505050565b5f5f604083850312156133ce575f5ffd5b823591506133de6020840161315b565b90509250929050565b5f602082016020835280845180835260408501915060408160051b8601019250602086015f5b8281101561346057603f19878603018452815180516060875261343360608801826130cb565b6020838101511515898201526040938401519390980192909252509493840193919091019060010161340d565b50929695505050505050565b5f5f6020838503121561347d575f5ffd5b823567ffffffffffffffff811115613493575f5ffd5b61349f85828601613330565b90969095509350505050565b6001600160a01b0389168152610100602082018190525f906134cf9083018a6130cb565b82810360408401526134e1818a6130cb565b905082810360608401526134f581896130cb565b9150508560808301528460a08301528360c08301528260e08301529998505050505050505050565b5f5f5f5f5f5f5f6080888a031215613533575f5ffd5b873567ffffffffffffffff811115613549575f5ffd5b6135558a828b01613330565b909850965050602088013567ffffffffffffffff811115613574575f5ffd5b6135808a828b01613330565b909650945050604088013567ffffffffffffffff81111561359f575f5ffd5b6135ab8a828b01613330565b989b979a50959894979596606090950135949350505050565b828152604060208201525f6135dc60408301846130cb565b949350505050565b5f5f5f5f5f5f5f6080888a0312156135fa575f5ffd5b87359650602088013567ffffffffffffffff811115613617575f5ffd5b6136238a828b01613330565b909750955050604088013567ffffffffffffffff811115613642575f5ffd5b61364e8a828b01613330565b909550935050606088013567ffffffffffffffff81111561366d575f5ffd5b6136798a828b01613330565b989b979a50959850939692959293505050565b5f5f6040838503121561369d575f5ffd5b6136a68361315b565b91506133de6020840161315b565b6001600160a01b03851681526080602082018190525f906136d7908301866130cb565b60408301949094525090151560609091015292915050565b600181811c9082168061370357607f821691505b60208210810361372157634e487b7160e01b5f52602260045260245ffd5b50919050565b6020808252600e908201526d189b1bd9c81b9bdd08195e1a5cdd60921b604082015260600190565b634e487b7160e01b5f52603260045260245ffd5b6020808252601b908201527f426c6f672069732068696464656e20627920636f6d6d756e6974790000000000604082015260600190565b602080825260149082015273105b189d5b48191bd95cc81b9bdd08195e1a5cdd60621b604082015260600190565b602080825260139082015272109b1bd9c8191bd95cc81b9bdd08195e1a5cdd606a1b604082015260600190565b634e487b7160e01b5f52601160045260245ffd5b808201808211156108e3576108e36137f5565b634e487b7160e01b5f52604160045260245ffd5b601f821115612dc15782821115612dc157805f5260205f20601f840160051c602085101561385b57505f5b90810190601f840160051c035f5b8181101561387e575f83820155600101613869565b505050505050565b815167ffffffffffffffff8111156138a0576138a061381c565b6138b4816138ae84546136ef565b84613830565b6020601f8211600181146138e6575f83156138cf5750848201515b5f19600385901b1c1916600184901b17845561393e565b5f84815260208120601f198516915b8281101561391557878501518255602094850194600190920191016138f5565b508482101561393257868401515f19600387901b60f8161c191681555b505060018360011b0184555b5050505050565b81835281816020850137505f828201602090810191909152601f909101601f19169091010190565b838152604060208201525f613327604083018486613945565b67ffffffffffffffff83111561399e5761399e61381c565b6139b2836139ac83546136ef565b83613830565b5f601f8411600181146139e3575f85156139cc5750838201355b5f19600387901b1c1916600186901b17835561393e565b5f83815260208120601f198716915b82811015613a1257868501358255602094850194600190920191016139f2565b5086821015613a2e575f1960f88860031b161c19848701351681555b505060018560011b0183555050505050565b602081525f6135dc602083018486613945565b604081525f613a66604083018688613945565b8281036020840152613a79818587613945565b979650505050505050565b5f60018201613a9557613a956137f5565b5060010190565b6001600160a01b03841681526040602082018190525f906133279083018486613945565b606081525f613ad360608301888a613945565b8281036020840152613ae6818789613945565b90508281036040840152613afb818587613945565b999850505050505050505056fea2646970667358221220eda197da1e66c1a0e69c546e438a2935e0dd13cca70a9336d768ada192f01ea964736f6c63430008210033",
  "linkReferences": {},
  "deployedLinkReferences": {},
  "immutableReferences": {},
  "inputSourceName": "project/contracts/BlogSystem.sol",
  "buildInfoId": "solc-0_8_33-e7501668b9985088e4e53d93e47c87c7daa3f504"
}